{
  "contractName": "GreenWallet",
  "abi": [
    {
      "inputs": [],
      "stateMutability": "nonpayable",
      "type": "constructor"
    },
    {
      "anonymous": false,
      "inputs": [
        {
          "indexed": false,
          "internalType": "address",
          "name": "_address",
          "type": "address"
        }
      ],
      "name": "setMManRegInGreenWallet",
      "type": "event"
    },
    {
      "anonymous": false,
      "inputs": [
        {
          "indexed": false,
          "internalType": "address",
          "name": "_address",
          "type": "address"
        }
      ],
      "name": "setMRegInGreenWallet",
      "type": "event"
    },
    {
      "inputs": [
        {
          "internalType": "address",
          "name": "_address",
          "type": "address"
        }
      ],
      "name": "setMManAddress",
      "outputs": [],
      "stateMutability": "nonpayable",
      "type": "function"
    },
    {
      "inputs": [
        {
          "internalType": "address",
          "name": "_address",
          "type": "address"
        }
      ],
      "name": "setMRegAddress",
      "outputs": [],
      "stateMutability": "nonpayable",
      "type": "function"
    },
    {
      "inputs": [],
      "name": "getAddresses",
      "outputs": [
        {
          "internalType": "address[]",
          "name": "_addresses",
          "type": "address[]"
        }
      ],
      "stateMutability": "view",
      "type": "function",
      "constant": true
    },
    {
      "inputs": [
        {
          "internalType": "address",
          "name": "_walletAddress",
          "type": "address"
        },
        {
          "internalType": "string[]",
          "name": "_chains",
          "type": "string[]"
        },
        {
          "internalType": "int256[]",
          "name": "numTransactions",
          "type": "int256[]"
        }
      ],
      "name": "addIntoContract",
      "outputs": [],
      "stateMutability": "nonpayable",
      "type": "function"
    },
    {
      "inputs": [
        {
          "internalType": "address",
          "name": "_walletAddress",
          "type": "address"
        },
        {
          "internalType": "string",
          "name": "_chain",
          "type": "string"
        }
      ],
      "name": "updateTransactions",
      "outputs": [],
      "stateMutability": "nonpayable",
      "type": "function"
    },
    {
      "inputs": [
        {
          "internalType": "address",
          "name": "_walletAddress",
          "type": "address"
        }
      ],
      "name": "getScore",
      "outputs": [
        {
          "internalType": "int256",
          "name": "walletScore",
          "type": "int256"
        }
      ],
      "stateMutability": "nonpayable",
      "type": "function"
    },
    {
      "inputs": [
        {
          "internalType": "address",
          "name": "_walletAddress",
          "type": "address"
        }
      ],
      "name": "getNumTransactions",
      "outputs": [
        {
          "internalType": "int256[]",
          "name": "_transactionList",
          "type": "int256[]"
        }
      ],
      "stateMutability": "view",
      "type": "function",
      "constant": true
    },
    {
      "inputs": [
        {
          "internalType": "address",
          "name": "_walletAddress",
          "type": "address"
        }
      ],
      "name": "addressExists",
      "outputs": [
        {
          "internalType": "bool",
          "name": "",
          "type": "bool"
        }
      ],
      "stateMutability": "view",
      "type": "function",
      "constant": true
    },
    {
      "inputs": [
        {
          "internalType": "address",
          "name": "_walletAddress",
          "type": "address"
        }
      ],
      "name": "walletOwns",
      "outputs": [
        {
          "internalType": "string[]",
          "name": "ownedTiers",
          "type": "string[]"
        }
      ],
      "stateMutability": "nonpayable",
      "type": "function"
    },
    {
      "inputs": [
        {
          "internalType": "string",
          "name": "chain",
          "type": "string"
        }
      ],
      "name": "addChain",
      "outputs": [],
      "stateMutability": "nonpayable",
      "type": "function"
    },
    {
      "inputs": [],
      "name": "getChains",
      "outputs": [
        {
          "internalType": "string[]",
          "name": "chainsList",
          "type": "string[]"
        }
      ],
      "stateMutability": "view",
      "type": "function",
      "constant": true
    }
  ],
  "bytecode": "0x608060405234801561001057600080fd5b50612036806100206000396000f3fe608060405234801561001057600080fd5b50600436106100a95760003560e01c80635ffdeac0116100715780635ffdeac014610164578063a39fac1214610180578063a50252221461019e578063ac197ea3146101ce578063d47875d0146101ea578063fd1147531461021a576100a9565b80632afb76e8146100ae5780632e838aa5146100de57806332fc64a61461010e578063331b062a1461012a57806355e13f1314610148575b600080fd5b6100c860048036038101906100c39190610df4565b610236565b6040516100d59190610f73565b60405180910390f35b6100f860048036038101906100f39190610df4565b6102e2565b604051610105919061105d565b60405180910390f35b610128600480360381019061012391906111b4565b6103fa565b005b6101326105af565b60405161013f9190610f73565b60405180910390f35b610162600480360381019061015d9190610df4565b610688565b005b61017e600480360381019061017991906113e5565b610703565b005b6101886109e2565b604051610195919061152e565b60405180910390f35b6101b860048036038101906101b39190610df4565b610a70565b6040516101c5919061156b565b60405180910390f35b6101e860048036038101906101e39190610df4565b610b1e565b005b61020460048036038101906101ff9190610df4565b610b99565b6040516102119190611595565b60405180910390f35b610234600480360381019061022f91906115b0565b610c88565b005b6060600460009054906101000a900473ffffffffffffffffffffffffffffffffffffffff1673ffffffffffffffffffffffffffffffffffffffff1663a6c51d42836040518263ffffffff1660e01b81526004016102939190611608565b6000604051808303816000875af11580156102b2573d6000803e3d6000fd5b505050506040513d6000823e3d601f19601f820116820180604052508101906102db9190611748565b9050919050565b6060600060028054905067ffffffffffffffff81111561030557610304611089565b5b6040519080825280602002602001820160405280156103335781602001602082028036833780820191505090505b50905060005b6002805490508110156103f0576000808573ffffffffffffffffffffffffffffffffffffffff1673ffffffffffffffffffffffffffffffffffffffff1681526020019081526020016000206002828154811061039857610397611791565b5b906000526020600020016040516103af91906118c3565b9081526020016040518091039020548282815181106103d1576103d0611791565b5b60200260200101818152505080806103e890611913565b915050610339565b5080915050919050565b60016000808473ffffffffffffffffffffffffffffffffffffffff1673ffffffffffffffffffffffffffffffffffffffff16815260200190815260200160002082604051610448919061198c565b9081526020016040518091039020600082825461046591906119a3565b925050819055506000600360009054906101000a900473ffffffffffffffffffffffffffffffffffffffff1673ffffffffffffffffffffffffffffffffffffffff1663acbff28d8460026104b8876102e2565b6040518463ffffffff1660e01b81526004016104d693929190611b20565b6020604051808303816000875af11580156104f5573d6000803e3d6000fd5b505050506040513d601f19601f820116820180604052508101906105199190611b7a565b9050600360009054906101000a900473ffffffffffffffffffffffffffffffffffffffff1673ffffffffffffffffffffffffffffffffffffffff16636e114c3c84836040518363ffffffff1660e01b8152600401610578929190611ba7565b600060405180830381600087803b15801561059257600080fd5b505af11580156105a6573d6000803e3d6000fd5b50505050505050565b60606002805480602002602001604051908101604052809291908181526020016000905b8282101561067f5783829060005260206000200180546105f2906117ef565b80601f016020809104026020016040519081016040528092919081815260200182805461061e906117ef565b801561066b5780601f106106405761010080835404028352916020019161066b565b820191906000526020600020905b81548152906001019060200180831161064e57829003601f168201915b5050505050815260200190600101906105d3565b50505050905090565b80600360006101000a81548173ffffffffffffffffffffffffffffffffffffffff021916908373ffffffffffffffffffffffffffffffffffffffff1602179055507f1a554f90435dfee29039a521ddf9e41a563dd55553a2fb3934463143dc02899e816040516106f89190611608565b60405180910390a150565b61070c83610a70565b1561074c576040517f08c379a000000000000000000000000000000000000000000000000000000000815260040161074390611c53565b60405180910390fd5b8051825114610790576040517f08c379a000000000000000000000000000000000000000000000000000000000815260040161078790611ce5565b60405180910390fd5b6001839080600181540180825580915050600190039060005260206000200160009091909190916101000a81548173ffffffffffffffffffffffffffffffffffffffff021916908373ffffffffffffffffffffffffffffffffffffffff16021790555060005b82518110156108a55781818151811061081257610811611791565b5b60200260200101516000808673ffffffffffffffffffffffffffffffffffffffff1673ffffffffffffffffffffffffffffffffffffffff16815260200190815260200160002084838151811061086b5761086a611791565b5b6020026020010151604051610880919061198c565b908152602001604051809103902081905550808061089d90611913565b9150506107f6565b506000600360009054906101000a900473ffffffffffffffffffffffffffffffffffffffff1673ffffffffffffffffffffffffffffffffffffffff1663acbff28d856002856040518463ffffffff1660e01b815260040161090893929190611b20565b6020604051808303816000875af1158015610927573d6000803e3d6000fd5b505050506040513d601f19601f8201168201806040525081019061094b9190611b7a565b9050600360009054906101000a900473ffffffffffffffffffffffffffffffffffffffff1673ffffffffffffffffffffffffffffffffffffffff16636e114c3c85836040518363ffffffff1660e01b81526004016109aa929190611ba7565b600060405180830381600087803b1580156109c457600080fd5b505af11580156109d8573d6000803e3d6000fd5b5050505050505050565b60606001805480602002602001604051908101604052809291908181526020018280548015610a6657602002820191906000526020600020905b8160009054906101000a900473ffffffffffffffffffffffffffffffffffffffff1673ffffffffffffffffffffffffffffffffffffffff1681526020019060010190808311610a1c575b5050505050905090565b600080600090505b600180549050811015610b13578273ffffffffffffffffffffffffffffffffffffffff1660018281548110610ab057610aaf611791565b5b9060005260206000200160009054906101000a900473ffffffffffffffffffffffffffffffffffffffff1673ffffffffffffffffffffffffffffffffffffffff1603610b00576001915050610b19565b8080610b0b90611913565b915050610a78565b50600090505b919050565b80600460006101000a81548173ffffffffffffffffffffffffffffffffffffffff021916908373ffffffffffffffffffffffffffffffffffffffff1602179055507f1a554f90435dfee29039a521ddf9e41a563dd55553a2fb3934463143dc02899e81604051610b8e9190611608565b60405180910390a150565b6000610ba482610a70565b610be3576040517f08c379a0000000000000000000000000000000000000000000000000000000008152600401610bda90611d77565b60405180910390fd5b600360009054906101000a900473ffffffffffffffffffffffffffffffffffffffff1673ffffffffffffffffffffffffffffffffffffffff1663d47875d0836040518263ffffffff1660e01b8152600401610c3e9190611608565b6020604051808303816000875af1158015610c5d573d6000803e3d6000fd5b505050506040513d601f19601f82011682018060405250810190610c819190611b7a565b9050919050565b600281908060018154018082558091505060019003906000526020600020016000909190919091509081610cbc9190611f2e565b5060005b600180549050811015610d7e57600080600060018481548110610ce657610ce5611791565b5b9060005260206000200160009054906101000a900473ffffffffffffffffffffffffffffffffffffffff1673ffffffffffffffffffffffffffffffffffffffff1673ffffffffffffffffffffffffffffffffffffffff16815260200190815260200160002083604051610d59919061198c565b9081526020016040518091039020819055508080610d7690611913565b915050610cc0565b5050565b6000604051905090565b600080fd5b600080fd5b600073ffffffffffffffffffffffffffffffffffffffff82169050919050565b6000610dc182610d96565b9050919050565b610dd181610db6565b8114610ddc57600080fd5b50565b600081359050610dee81610dc8565b92915050565b600060208284031215610e0a57610e09610d8c565b5b6000610e1884828501610ddf565b91505092915050565b600081519050919050565b600082825260208201905092915050565b6000819050602082019050919050565b600081519050919050565b600082825260208201905092915050565b60005b83811015610e87578082015181840152602081019050610e6c565b60008484015250505050565b6000601f19601f8301169050919050565b6000610eaf82610e4d565b610eb98185610e58565b9350610ec9818560208601610e69565b610ed281610e93565b840191505092915050565b6000610ee98383610ea4565b905092915050565b6000602082019050919050565b6000610f0982610e21565b610f138185610e2c565b935083602082028501610f2585610e3d565b8060005b85811015610f615784840389528151610f428582610edd565b9450610f4d83610ef1565b925060208a01995050600181019050610f29565b50829750879550505050505092915050565b60006020820190508181036000830152610f8d8184610efe565b905092915050565b600081519050919050565b600082825260208201905092915050565b6000819050602082019050919050565b6000819050919050565b610fd481610fc1565b82525050565b6000610fe68383610fcb565b60208301905092915050565b6000602082019050919050565b600061100a82610f95565b6110148185610fa0565b935061101f83610fb1565b8060005b838110156110505781516110378882610fda565b975061104283610ff2565b925050600181019050611023565b5085935050505092915050565b600060208201905081810360008301526110778184610fff565b905092915050565b600080fd5b600080fd5b7f4e487b7100000000000000000000000000000000000000000000000000000000600052604160045260246000fd5b6110c182610e93565b810181811067ffffffffffffffff821117156110e0576110df611089565b5b80604052505050565b60006110f3610d82565b90506110ff82826110b8565b919050565b600067ffffffffffffffff82111561111f5761111e611089565b5b61112882610e93565b9050602081019050919050565b82818337600083830152505050565b600061115761115284611104565b6110e9565b90508281526020810184848401111561117357611172611084565b5b61117e848285611135565b509392505050565b600082601f83011261119b5761119a61107f565b5b81356111ab848260208601611144565b91505092915050565b600080604083850312156111cb576111ca610d8c565b5b60006111d985828601610ddf565b925050602083013567ffffffffffffffff8111156111fa576111f9610d91565b5b61120685828601611186565b9150509250929050565b600067ffffffffffffffff82111561122b5761122a611089565b5b602082029050602081019050919050565b600080fd5b600061125461124f84611210565b6110e9565b905080838252602082019050602084028301858111156112775761127661123c565b5b835b818110156112be57803567ffffffffffffffff81111561129c5761129b61107f565b5b8086016112a98982611186565b85526020850194505050602081019050611279565b5050509392505050565b600082601f8301126112dd576112dc61107f565b5b81356112ed848260208601611241565b91505092915050565b600067ffffffffffffffff82111561131157611310611089565b5b602082029050602081019050919050565b61132b81610fc1565b811461133657600080fd5b50565b60008135905061134881611322565b92915050565b600061136161135c846112f6565b6110e9565b905080838252602082019050602084028301858111156113845761138361123c565b5b835b818110156113ad57806113998882611339565b845260208401935050602081019050611386565b5050509392505050565b600082601f8301126113cc576113cb61107f565b5b81356113dc84826020860161134e565b91505092915050565b6000806000606084860312156113fe576113fd610d8c565b5b600061140c86828701610ddf565b935050602084013567ffffffffffffffff81111561142d5761142c610d91565b5b611439868287016112c8565b925050604084013567ffffffffffffffff81111561145a57611459610d91565b5b611466868287016113b7565b9150509250925092565b600081519050919050565b600082825260208201905092915050565b6000819050602082019050919050565b6114a581610db6565b82525050565b60006114b7838361149c565b60208301905092915050565b6000602082019050919050565b60006114db82611470565b6114e5818561147b565b93506114f08361148c565b8060005b8381101561152157815161150888826114ab565b9750611513836114c3565b9250506001810190506114f4565b5085935050505092915050565b6000602082019050818103600083015261154881846114d0565b905092915050565b60008115159050919050565b61156581611550565b82525050565b6000602082019050611580600083018461155c565b92915050565b61158f81610fc1565b82525050565b60006020820190506115aa6000830184611586565b92915050565b6000602082840312156115c6576115c5610d8c565b5b600082013567ffffffffffffffff8111156115e4576115e3610d91565b5b6115f084828501611186565b91505092915050565b61160281610db6565b82525050565b600060208201905061161d60008301846115f9565b92915050565b600061163661163184611104565b6110e9565b90508281526020810184848401111561165257611651611084565b5b61165d848285610e69565b509392505050565b600082601f83011261167a5761167961107f565b5b815161168a848260208601611623565b91505092915050565b60006116a66116a184611210565b6110e9565b905080838252602082019050602084028301858111156116c9576116c861123c565b5b835b8181101561171057805167ffffffffffffffff8111156116ee576116ed61107f565b5b8086016116fb8982611665565b855260208501945050506020810190506116cb565b5050509392505050565b600082601f83011261172f5761172e61107f565b5b815161173f848260208601611693565b91505092915050565b60006020828403121561175e5761175d610d8c565b5b600082015167ffffffffffffffff81111561177c5761177b610d91565b5b6117888482850161171a565b91505092915050565b7f4e487b7100000000000000000000000000000000000000000000000000000000600052603260045260246000fd5b7f4e487b7100000000000000000000000000000000000000000000000000000000600052602260045260246000fd5b6000600282049050600182168061180757607f821691505b60208210810361181a576118196117c0565b5b50919050565b600081905092915050565b60008190508160005260206000209050919050565b6000815461184d816117ef565b6118578186611820565b945060018216600081146118725760018114611887576118ba565b60ff19831686528115158202860193506118ba565b6118908561182b565b60005b838110156118b257815481890152600182019150602081019050611893565b838801955050505b50505092915050565b60006118cf8284611840565b915081905092915050565b7f4e487b7100000000000000000000000000000000000000000000000000000000600052601160045260246000fd5b6000819050919050565b600061191e82611909565b91507fffffffffffffffffffffffffffffffffffffffffffffffffffffffffffffffff82036119505761194f6118da565b5b600182019050919050565b600061196682610e4d565b6119708185611820565b9350611980818560208601610e69565b80840191505092915050565b6000611998828461195b565b915081905092915050565b60006119ae82610fc1565b91506119b983610fc1565b9250828201905082811215600083121683821260008412151617156119e1576119e06118da565b5b92915050565b600081549050919050565b60008190508160005260206000209050919050565b60008154611a14816117ef565b611a1e8186610e58565b94506001821660008114611a395760018114611a4f57611a82565b60ff198316865281151560200286019350611a82565b611a588561182b565b60005b83811015611a7a57815481890152600182019150602081019050611a5b565b808801955050505b50505092915050565b6000611a978383611a07565b905092915050565b6000600182019050919050565b6000611ab7826119e7565b611ac18185610e2c565b935083602082028501611ad3856119f2565b8060005b85811015611b0e57848403895281611aef8582611a8b565b9450611afa83611a9f565b925060208a01995050600181019050611ad7565b50829750879550505050505092915050565b6000606082019050611b3560008301866115f9565b8181036020830152611b478185611aac565b90508181036040830152611b5b8184610fff565b9050949350505050565b600081519050611b7481611322565b92915050565b600060208284031215611b9057611b8f610d8c565b5b6000611b9e84828501611b65565b91505092915050565b6000604082019050611bbc60008301856115f9565b611bc96020830184611586565b9392505050565b600082825260208201905092915050565b7f546869732077616c6c657420616c72656164792065786973747320696e20746860008201527f697320636f6e7472616374000000000000000000000000000000000000000000602082015250565b6000611c3d602b83611bd0565b9150611c4882611be1565b604082019050919050565b60006020820190508181036000830152611c6c81611c30565b9050919050565b7f43617465676f7269657320616e642076616c75657320617272617973206d757360008201527f74206265206f6620657175616c206c656e677468000000000000000000000000602082015250565b6000611ccf603483611bd0565b9150611cda82611c73565b604082019050919050565b60006020820190508181036000830152611cfe81611cc2565b9050919050565b7f546869732077616c6c657420646f6573206e6f7420657869737420696e20746860008201527f697320636f6e7472616374000000000000000000000000000000000000000000602082015250565b6000611d61602b83611bd0565b9150611d6c82611d05565b604082019050919050565b60006020820190508181036000830152611d9081611d54565b9050919050565b60006020601f8301049050919050565b600082821b905092915050565b600060088302611de47fffffffffffffffffffffffffffffffffffffffffffffffffffffffffffffffff82611da7565b611dee8683611da7565b95508019841693508086168417925050509392505050565b6000819050919050565b6000611e2b611e26611e2184611909565b611e06565b611909565b9050919050565b6000819050919050565b611e4583611e10565b611e59611e5182611e32565b848454611db4565b825550505050565b600090565b611e6e611e61565b611e79818484611e3c565b505050565b5b81811015611e9d57611e92600082611e66565b600181019050611e7f565b5050565b601f821115611ee257611eb38161182b565b611ebc84611d97565b81016020851015611ecb578190505b611edf611ed785611d97565b830182611e7e565b50505b505050565b600082821c905092915050565b6000611f0560001984600802611ee7565b1980831691505092915050565b6000611f1e8383611ef4565b9150826002028217905092915050565b611f3782610e4d565b67ffffffffffffffff811115611f5057611f4f611089565b5b611f5a82546117ef565b611f65828285611ea1565b600060209050601f831160018114611f985760008415611f86578287015190505b611f908582611f12565b865550611ff8565b601f198416611fa68661182b565b60005b82811015611fce57848901518255600182019150602085019450602081019050611fa9565b86831015611feb5784890151611fe7601f891682611ef4565b8355505b6001600288020188555050505b50505050505056fea26469706673582212203b6ea41bde1f6c431201226faaafb3f4e704e9260ad759033d74e8c61763e60f64736f6c63430008130033",
  "immutableReferences": {},
  "source": "// SPDX-License-Identifier: UNLICENSED\r\npragma solidity ^0.8.19;\r\n\r\nimport \"@openzeppelin/contracts/token/ERC721/extensions/ERC721URIStorage.sol\";\r\nimport \"@openzeppelin/contracts/access/Ownable.sol\";\r\n\r\ninterface MManager{\r\n    function calculateScore(address walletAddress, string[] memory chains, int[] memory numTransactions) external returns(int);\r\n    function mintSBTLogic(address _walletAddress, int _score) external;\r\n    function getScore(address _walletAddress) external returns(int);\r\n}\r\n\r\ninterface MRegister{\r\n    function getAllMintedSBTs(address _address) external returns (string[] memory _tiersOwned);\r\n}\r\ncontract GreenWallet {\r\n    mapping(address => mapping(string => int)) private transactions;\r\n    address[] addresses;\r\n    string[] chains;\r\n    MManager MMan;\r\n    MRegister MReg;\r\n    event setMManRegInGreenWallet(address _address);\r\n    event setMRegInGreenWallet(address _address);\r\n\r\n    constructor(){}\r\n\r\n    function setMManAddress(address _address) external{\r\n        MMan = MManager(_address);\r\n        emit setMManRegInGreenWallet(_address);\r\n    }\r\n\r\n    function setMRegAddress(address _address) external {\r\n        MReg = MRegister(_address);\r\n        emit setMManRegInGreenWallet(_address);\r\n    }\r\n\r\n    function getAddresses() public view returns (address[] memory _addresses) {\r\n        return addresses;\r\n    }\r\n\r\n    function addIntoContract(address _walletAddress, string[] memory _chains, int[] memory numTransactions) \r\n            public {\r\n        require(!addressExists(_walletAddress), \"This wallet already exists in this contract\");\r\n        require(_chains.length == numTransactions.length, \"Categories and values arrays must be of equal length\");\r\n        addresses.push(_walletAddress);\r\n        for (uint256 i = 0; i < _chains.length; i++) {\r\n            transactions[_walletAddress][_chains[i]] = numTransactions[i];\r\n        }\r\n        int score = MMan.calculateScore(_walletAddress, chains, numTransactions);\r\n        MMan.mintSBTLogic(_walletAddress, score);\r\n    }\r\n\r\n    function updateTransactions(address _walletAddress, string memory _chain) public {\r\n        transactions[_walletAddress][_chain] += 1;\r\n        int score = MMan.calculateScore(_walletAddress, chains, getNumTransactions(_walletAddress));\r\n        MMan.mintSBTLogic(_walletAddress, score);\r\n    }\r\n\r\n    function getScore(address _walletAddress) public returns (int walletScore) {\r\n        require(addressExists(_walletAddress), \"This wallet does not exist in this contract\");\r\n        return MMan.getScore(_walletAddress);\r\n    }\r\n    \r\n    function getNumTransactions(address _walletAddress) public view returns (int[] memory _transactionList){\r\n        int[] memory _transactions = new int[](chains.length);\r\n        for(uint256 i = 0; i < chains.length; i++) {\r\n            _transactions[i] = transactions[_walletAddress][chains[i]];\r\n        }\r\n        return _transactions;\r\n    }\r\n\r\n    function addressExists(address _walletAddress) public view returns (bool) {\r\n        for (uint i = 0; i < addresses.length; i++) {\r\n            if (addresses[i] == _walletAddress) {\r\n                return true;\r\n            }\r\n        }\r\n        return false;\r\n    }\r\n    function walletOwns(address _walletAddress) public returns (string[] memory ownedTiers) {\r\n        return MReg.getAllMintedSBTs(_walletAddress);\r\n    }\r\n    function addChain(string memory chain) public {\r\n        chains.push(chain);\r\n        for(uint i = 0; i < addresses.length; i++){\r\n            transactions[addresses[i]][chain] = 0;\r\n        }\r\n    }\r\n    function getChains() public view returns (string[] memory chainsList) {\r\n        return chains;\r\n    }\r\n}\r\n",
  "sourcePath": "C:\\Users\\Alex\\Desktop\\GreenWalletV2\\contracts\\GreenWallet.sol",
  "compiler": {
    "name": "solc",
    "version": "0.8.19+commit.7dd6d404.Emscripten.clang"
  },
  "schemaVersion": "3.4.16",
  "updatedAt": "2024-09-28T16:41:54.794Z",
  "networkType": "ethereum",
  "devdoc": {
    "kind": "dev",
    "methods": {},
    "version": 1
  },
  "userdoc": {
    "kind": "user",
    "methods": {},
    "version": 1
  }
}