{
  "contractName": "MintingRegistry",
  "abi": [
    {
      "inputs": [],
      "stateMutability": "nonpayable",
      "type": "constructor"
    },
    {
      "anonymous": false,
      "inputs": [
        {
          "indexed": false,
          "internalType": "address",
          "name": "_address",
          "type": "address"
        }
      ],
      "name": "setITierAddressInMintingRegistry",
      "type": "event"
    },
    {
      "inputs": [
        {
          "internalType": "address",
          "name": "_address",
          "type": "address"
        }
      ],
      "name": "setITierAddress",
      "outputs": [],
      "stateMutability": "nonpayable",
      "type": "function"
    },
    {
      "inputs": [
        {
          "internalType": "address",
          "name": "_address",
          "type": "address"
        }
      ],
      "name": "addAddress",
      "outputs": [],
      "stateMutability": "nonpayable",
      "type": "function"
    },
    {
      "inputs": [],
      "name": "getAddresses",
      "outputs": [
        {
          "internalType": "address[]",
          "name": "_addresses",
          "type": "address[]"
        }
      ],
      "stateMutability": "pure",
      "type": "function",
      "constant": true
    },
    {
      "inputs": [
        {
          "internalType": "address",
          "name": "_address",
          "type": "address"
        },
        {
          "internalType": "string",
          "name": "_tier",
          "type": "string"
        },
        {
          "internalType": "uint256",
          "name": "_sbtId",
          "type": "uint256"
        }
      ],
      "name": "updateMintedRegistryForWallets",
      "outputs": [],
      "stateMutability": "nonpayable",
      "type": "function"
    },
    {
      "inputs": [
        {
          "internalType": "address",
          "name": "_address",
          "type": "address"
        },
        {
          "internalType": "string",
          "name": "_tier",
          "type": "string"
        }
      ],
      "name": "deleteMintedRegistryForWallets",
      "outputs": [],
      "stateMutability": "nonpayable",
      "type": "function"
    },
    {
      "inputs": [
        {
          "internalType": "address",
          "name": "_address",
          "type": "address"
        },
        {
          "internalType": "string",
          "name": "_tier",
          "type": "string"
        }
      ],
      "name": "hasMintedSBT",
      "outputs": [
        {
          "internalType": "bool",
          "name": "_hasMinted",
          "type": "bool"
        }
      ],
      "stateMutability": "view",
      "type": "function",
      "constant": true
    },
    {
      "inputs": [
        {
          "internalType": "address",
          "name": "_address",
          "type": "address"
        },
        {
          "internalType": "string",
          "name": "_tier",
          "type": "string"
        },
        {
          "internalType": "uint256",
          "name": "_sbtId",
          "type": "uint256"
        }
      ],
      "name": "setMintedSBT",
      "outputs": [],
      "stateMutability": "nonpayable",
      "type": "function"
    },
    {
      "inputs": [
        {
          "internalType": "address",
          "name": "_address",
          "type": "address"
        }
      ],
      "name": "getAllMintedSBTs",
      "outputs": [
        {
          "internalType": "string[]",
          "name": "_tiersOwned",
          "type": "string[]"
        }
      ],
      "stateMutability": "view",
      "type": "function",
      "constant": true
    }
  ],
  "bytecode": "0x608060405234801561001057600080fd5b506110b6806100206000396000f3fe608060405234801561001057600080fd5b50600436106100885760003560e01c8063a39fac121161005b578063a39fac1214610111578063a6c51d421461012f578063a77626c51461015f578063ea203c2c1461017b57610088565b80632286bef71461008d57806338eada1c146100a957806354095468146100c55780638f64a3ef146100e1575b600080fd5b6100a760048036038101906100a29190610a4d565b610197565b005b6100c360048036038101906100be9190610abc565b6101fc565b005b6100df60048036038101906100da9190610ae9565b610423565b005b6100fb60048036038101906100f69190610ae9565b610486565b6040516101089190610b60565b60405180910390f35b6101196104ef565b6040516101269190610c39565b60405180910390f35b61014960048036038101906101449190610abc565b6104f4565b6040516101569190610d9c565b60405180910390f35b61017960048036038101906101749190610a4d565b610780565b005b61019560048036038101906101909190610abc565b6107e5565b005b80600260008573ffffffffffffffffffffffffffffffffffffffff1673ffffffffffffffffffffffffffffffffffffffff168152602001908152602001600020836040516101e59190610dfa565b908152602001604051809103902081905550505050565b6001819080600181540180825580915050600190039060005260206000200160009091909190916101000a81548173ffffffffffffffffffffffffffffffffffffffff021916908373ffffffffffffffffffffffffffffffffffffffff16021790555060005b60008054906101000a900473ffffffffffffffffffffffffffffffffffffffff1673ffffffffffffffffffffffffffffffffffffffff1663de1705706040518163ffffffff1660e01b8152600401600060405180830381865afa1580156102cd573d6000803e3d6000fd5b505050506040513d6000823e3d601f19601f820116820180604052508101906102f69190610f67565b5181101561041f576000600260008473ffffffffffffffffffffffffffffffffffffffff1673ffffffffffffffffffffffffffffffffffffffff16815260200190815260200160002060008054906101000a900473ffffffffffffffffffffffffffffffffffffffff1673ffffffffffffffffffffffffffffffffffffffff1663de1705706040518163ffffffff1660e01b8152600401600060405180830381865afa1580156103aa573d6000803e3d6000fd5b505050506040513d6000823e3d601f19601f820116820180604052508101906103d39190610f67565b83815181106103e5576103e4610fb0565b5b60200260200101516040516103fa9190610dfa565b90815260200160405180910390208190555080806104179061100e565b915050610262565b5050565b600260008373ffffffffffffffffffffffffffffffffffffffff1673ffffffffffffffffffffffffffffffffffffffff168152602001908152602001600020816040516104709190610dfa565b9081526020016040518091039020600090555050565b600080600260008573ffffffffffffffffffffffffffffffffffffffff1673ffffffffffffffffffffffffffffffffffffffff168152602001908152602001600020836040516104d69190610dfa565b9081526020016040518091039020541415905092915050565b606090565b606060008060009054906101000a900473ffffffffffffffffffffffffffffffffffffffff1673ffffffffffffffffffffffffffffffffffffffff1663de1705706040518163ffffffff1660e01b8152600401600060405180830381865afa158015610564573d6000803e3d6000fd5b505050506040513d6000823e3d601f19601f8201168201806040525081019061058d9190610f67565b90506000805b825181101561063b576000600260008773ffffffffffffffffffffffffffffffffffffffff1673ffffffffffffffffffffffffffffffffffffffff1681526020019081526020016000208483815181106105f0576105ef610fb0565b5b60200260200101516040516106059190610dfa565b908152602001604051809103902054146106285781806106249061100e565b9250505b80806106339061100e565b915050610593565b5060008167ffffffffffffffff811115610658576106576108ec565b5b60405190808252806020026020018201604052801561068b57816020015b60608152602001906001900390816106765790505b5090506000805b8451811015610773576000600260008973ffffffffffffffffffffffffffffffffffffffff1673ffffffffffffffffffffffffffffffffffffffff1681526020019081526020016000208683815181106106ef576106ee610fb0565b5b60200260200101516040516107049190610dfa565b908152602001604051809103902054146107605784818151811061072b5761072a610fb0565b5b602002602001015183838151811061074657610745610fb0565b5b6020026020010181905250818061075c9061100e565b9250505b808061076b9061100e565b915050610692565b5081945050505050919050565b80600260008573ffffffffffffffffffffffffffffffffffffffff1673ffffffffffffffffffffffffffffffffffffffff168152602001908152602001600020836040516107ce9190610dfa565b908152602001604051809103902081905550505050565b806000806101000a81548173ffffffffffffffffffffffffffffffffffffffff021916908373ffffffffffffffffffffffffffffffffffffffff1602179055507f5375e86ccd068526b25cb99978001899618a65a04b727f273df06abee4952c31816040516108549190611065565b60405180910390a150565b6000604051905090565b600080fd5b600080fd5b600073ffffffffffffffffffffffffffffffffffffffff82169050919050565b600061089e82610873565b9050919050565b6108ae81610893565b81146108b957600080fd5b50565b6000813590506108cb816108a5565b92915050565b600080fd5b600080fd5b6000601f19601f8301169050919050565b7f4e487b7100000000000000000000000000000000000000000000000000000000600052604160045260246000fd5b610924826108db565b810181811067ffffffffffffffff82111715610943576109426108ec565b5b80604052505050565b600061095661085f565b9050610962828261091b565b919050565b600067ffffffffffffffff821115610982576109816108ec565b5b61098b826108db565b9050602081019050919050565b82818337600083830152505050565b60006109ba6109b584610967565b61094c565b9050828152602081018484840111156109d6576109d56108d6565b5b6109e1848285610998565b509392505050565b600082601f8301126109fe576109fd6108d1565b5b8135610a0e8482602086016109a7565b91505092915050565b6000819050919050565b610a2a81610a17565b8114610a3557600080fd5b50565b600081359050610a4781610a21565b92915050565b600080600060608486031215610a6657610a65610869565b5b6000610a74868287016108bc565b935050602084013567ffffffffffffffff811115610a9557610a9461086e565b5b610aa1868287016109e9565b9250506040610ab286828701610a38565b9150509250925092565b600060208284031215610ad257610ad1610869565b5b6000610ae0848285016108bc565b91505092915050565b60008060408385031215610b0057610aff610869565b5b6000610b0e858286016108bc565b925050602083013567ffffffffffffffff811115610b2f57610b2e61086e565b5b610b3b858286016109e9565b9150509250929050565b60008115159050919050565b610b5a81610b45565b82525050565b6000602082019050610b756000830184610b51565b92915050565b600081519050919050565b600082825260208201905092915050565b6000819050602082019050919050565b610bb081610893565b82525050565b6000610bc28383610ba7565b60208301905092915050565b6000602082019050919050565b6000610be682610b7b565b610bf08185610b86565b9350610bfb83610b97565b8060005b83811015610c2c578151610c138882610bb6565b9750610c1e83610bce565b925050600181019050610bff565b5085935050505092915050565b60006020820190508181036000830152610c538184610bdb565b905092915050565b600081519050919050565b600082825260208201905092915050565b6000819050602082019050919050565b600081519050919050565b600082825260208201905092915050565b60005b83811015610cc1578082015181840152602081019050610ca6565b60008484015250505050565b6000610cd882610c87565b610ce28185610c92565b9350610cf2818560208601610ca3565b610cfb816108db565b840191505092915050565b6000610d128383610ccd565b905092915050565b6000602082019050919050565b6000610d3282610c5b565b610d3c8185610c66565b935083602082028501610d4e85610c77565b8060005b85811015610d8a5784840389528151610d6b8582610d06565b9450610d7683610d1a565b925060208a01995050600181019050610d52565b50829750879550505050505092915050565b60006020820190508181036000830152610db68184610d27565b905092915050565b600081905092915050565b6000610dd482610c87565b610dde8185610dbe565b9350610dee818560208601610ca3565b80840191505092915050565b6000610e068284610dc9565b915081905092915050565b600067ffffffffffffffff821115610e2c57610e2b6108ec565b5b602082029050602081019050919050565b600080fd5b6000610e55610e5084610967565b61094c565b905082815260208101848484011115610e7157610e706108d6565b5b610e7c848285610ca3565b509392505050565b600082601f830112610e9957610e986108d1565b5b8151610ea9848260208601610e42565b91505092915050565b6000610ec5610ec084610e11565b61094c565b90508083825260208201905060208402830185811115610ee857610ee7610e3d565b5b835b81811015610f2f57805167ffffffffffffffff811115610f0d57610f0c6108d1565b5b808601610f1a8982610e84565b85526020850194505050602081019050610eea565b5050509392505050565b600082601f830112610f4e57610f4d6108d1565b5b8151610f5e848260208601610eb2565b91505092915050565b600060208284031215610f7d57610f7c610869565b5b600082015167ffffffffffffffff811115610f9b57610f9a61086e565b5b610fa784828501610f39565b91505092915050565b7f4e487b7100000000000000000000000000000000000000000000000000000000600052603260045260246000fd5b7f4e487b7100000000000000000000000000000000000000000000000000000000600052601160045260246000fd5b600061101982610a17565b91507fffffffffffffffffffffffffffffffffffffffffffffffffffffffffffffffff820361104b5761104a610fdf565b5b600182019050919050565b61105f81610893565b82525050565b600060208201905061107a6000830184611056565b9291505056fea26469706673582212200a66a63ea7a4afd60cc403d3b04ef1020dd9ee1c2033f7c3a4f328d04ce52c3864736f6c63430008130033",
  "immutableReferences": {},
  "source": "// SPDX-License-Identifier: UNLICENSED\r\npragma solidity ^0.8.19;\r\n\r\nimport \"@openzeppelin/contracts/access/Ownable.sol\";\r\nimport \"./libraries/StringArrayUtils.sol\";\r\n\r\ninterface ITierRegistry {\r\n    function getTiers() external view returns (string[] memory);\r\n}\r\n\r\ncontract MintingRegistry{\r\n\r\n    ITierRegistry ITier;\r\n    using StringArrayUtils for string[];\r\n    address[] addresses;\r\n    mapping(address => mapping(string => uint256)) private mintedRegistryForWallets;\r\n\r\n    constructor(){}\r\n\r\n    event setITierAddressInMintingRegistry(address _address);\r\n\r\n    function setITierAddress(address _address) external{\r\n        ITier = ITierRegistry(_address);\r\n        emit setITierAddressInMintingRegistry(_address);\r\n    }\r\n    function addAddress(address _address) public  {\r\n        addresses.push(_address);\r\n        for (uint i = 0; i < ITier.getTiers().length; i++) {\r\n            mintedRegistryForWallets[_address][ITier.getTiers()[i]] = 0;\r\n        }\r\n    }\r\n    \r\n    function getAddresses() public pure returns (address[] memory _addresses){\r\n        return _addresses;\r\n    }\r\n\r\n    function updateMintedRegistryForWallets(address _address, string memory _tier, uint256 _sbtId) public {\r\n        mintedRegistryForWallets[_address][_tier] = _sbtId;\r\n    }\r\n    \r\n    function deleteMintedRegistryForWallets(address _address, string memory _tier) public {\r\n        delete mintedRegistryForWallets[_address][_tier];\r\n    }\r\n\r\n    function hasMintedSBT(address _address, string memory _tier) public view returns (bool _hasMinted){\r\n        return mintedRegistryForWallets[_address][_tier] != 0;\r\n    }\r\n    function setMintedSBT(address _address, string memory _tier, uint256 _sbtId) public {\r\n        mintedRegistryForWallets[_address][_tier] = _sbtId;\r\n    }\r\n    function getAllMintedSBTs(address _address) public view returns (string[] memory _tiersOwned){\r\n        string[] memory tiers = ITier.getTiers();\r\n        uint256 count = 0;\r\n        for (uint256 i = 0; i < tiers.length; i++) {\r\n            if (mintedRegistryForWallets[_address][tiers[i]] != 0) {\r\n                count++;\r\n            }\r\n        }\r\n        string[] memory tiersOwned = new string[](count);\r\n        uint256 index = 0;\r\n        for (uint256 i = 0; i < tiers.length; i++) {\r\n            if (mintedRegistryForWallets[_address][tiers[i]] != 0) {\r\n                tiersOwned[index] = tiers[i];\r\n                index++;\r\n            }\r\n        }\r\n        return tiersOwned;\r\n    }\r\n}",
  "sourcePath": "C:\\Users\\Alex\\Desktop\\GreenWalletV2\\contracts\\MintingRegistry.sol",
  "compiler": {
    "name": "solc",
    "version": "0.8.19+commit.7dd6d404.Emscripten.clang"
  },
  "schemaVersion": "3.4.16",
  "updatedAt": "2024-09-28T16:41:54.818Z",
  "networkType": "ethereum",
  "devdoc": {
    "kind": "dev",
    "methods": {},
    "version": 1
  },
  "userdoc": {
    "kind": "user",
    "methods": {},
    "version": 1
  }
}