{
  "contractName": "MintingManager",
  "abi": [
    {
      "inputs": [],
      "stateMutability": "nonpayable",
      "type": "constructor"
    },
    {
      "anonymous": false,
      "inputs": [
        {
          "indexed": true,
          "internalType": "address",
          "name": "previousOwner",
          "type": "address"
        },
        {
          "indexed": true,
          "internalType": "address",
          "name": "newOwner",
          "type": "address"
        }
      ],
      "name": "OwnershipTransferred",
      "type": "event"
    },
    {
      "anonymous": false,
      "inputs": [
        {
          "indexed": false,
          "internalType": "address",
          "name": "_address",
          "type": "address"
        }
      ],
      "name": "setMHandAddrInMManager",
      "type": "event"
    },
    {
      "anonymous": false,
      "inputs": [
        {
          "indexed": false,
          "internalType": "address",
          "name": "_address",
          "type": "address"
        }
      ],
      "name": "setMRegAddrInMManager",
      "type": "event"
    },
    {
      "inputs": [],
      "name": "owner",
      "outputs": [
        {
          "internalType": "address",
          "name": "",
          "type": "address"
        }
      ],
      "stateMutability": "view",
      "type": "function",
      "constant": true
    },
    {
      "inputs": [],
      "name": "renounceOwnership",
      "outputs": [],
      "stateMutability": "nonpayable",
      "type": "function"
    },
    {
      "inputs": [
        {
          "internalType": "address",
          "name": "newOwner",
          "type": "address"
        }
      ],
      "name": "transferOwnership",
      "outputs": [],
      "stateMutability": "nonpayable",
      "type": "function"
    },
    {
      "inputs": [
        {
          "internalType": "address",
          "name": "_address",
          "type": "address"
        }
      ],
      "name": "setMRegAddress",
      "outputs": [],
      "stateMutability": "nonpayable",
      "type": "function"
    },
    {
      "inputs": [
        {
          "internalType": "address",
          "name": "_address",
          "type": "address"
        }
      ],
      "name": "setMHandAddress",
      "outputs": [],
      "stateMutability": "nonpayable",
      "type": "function"
    },
    {
      "inputs": [
        {
          "internalType": "address",
          "name": "walletAddress",
          "type": "address"
        },
        {
          "internalType": "string[]",
          "name": "chains",
          "type": "string[]"
        },
        {
          "internalType": "int256[]",
          "name": "numTransactions",
          "type": "int256[]"
        }
      ],
      "name": "calculateScore",
      "outputs": [
        {
          "internalType": "int256",
          "name": "_score",
          "type": "int256"
        }
      ],
      "stateMutability": "nonpayable",
      "type": "function"
    },
    {
      "inputs": [
        {
          "internalType": "address",
          "name": "_walletAddress",
          "type": "address"
        }
      ],
      "name": "getScore",
      "outputs": [
        {
          "internalType": "int256",
          "name": "",
          "type": "int256"
        }
      ],
      "stateMutability": "view",
      "type": "function",
      "constant": true
    },
    {
      "inputs": [
        {
          "internalType": "address",
          "name": "_walletAddress",
          "type": "address"
        },
        {
          "internalType": "int256",
          "name": "_score",
          "type": "int256"
        }
      ],
      "name": "mintSBTLogic",
      "outputs": [],
      "stateMutability": "nonpayable",
      "type": "function"
    }
  ],
  "bytecode": "0x608060405234801561001057600080fd5b5061002d61002261003260201b60201c565b61003a60201b60201c565b6100fe565b600033905090565b60008060009054906101000a900473ffffffffffffffffffffffffffffffffffffffff169050816000806101000a81548173ffffffffffffffffffffffffffffffffffffffff021916908373ffffffffffffffffffffffffffffffffffffffff1602179055508173ffffffffffffffffffffffffffffffffffffffff168173ffffffffffffffffffffffffffffffffffffffff167f8be0079c531659141344cd1fd0a4f28419497f9722a3daafe3b4186f6b6457e060405160405180910390a35050565b6113f98061010d6000396000f3fe608060405234801561001057600080fd5b50600436106100885760003560e01c8063ac197ea31161005b578063ac197ea3146100ed578063acbff28d14610109578063d47875d014610139578063f2fde38b1461016957610088565b80630e983f151461008d5780636e114c3c146100a9578063715018a6146100c55780638da5cb5b146100cf575b600080fd5b6100a760048036038101906100a29190610b4a565b610185565b005b6100c360048036038101906100be9190610bad565b610200565b005b6100cd6107b4565b005b6100d76107c8565b6040516100e49190610bfc565b60405180910390f35b61010760048036038101906101029190610b4a565b6107f1565b005b610123600480360381019061011e9190610f06565b61086c565b6040516101309190610fa0565b60405180910390f35b610153600480360381019061014e9190610b4a565b6108c2565b6040516101609190610fa0565b60405180910390f35b610183600480360381019061017e9190610b4a565b61090b565b005b80600260006101000a81548173ffffffffffffffffffffffffffffffffffffffff021916908373ffffffffffffffffffffffffffffffffffffffff1602179055507fa25f6f0c08397d71e7d851872fe1c743269a9ee8cb1f2615eeb0eebe2687b358816040516101f59190610bfc565b60405180910390a150565b600581121580156102aa5750600160009054906101000a900473ffffffffffffffffffffffffffffffffffffffff1673ffffffffffffffffffffffffffffffffffffffff16638f64a3ef836040518263ffffffff1660e01b81526004016102679190611018565b602060405180830381865afa158015610284573d6000803e3d6000fd5b505050506040513d601f19601f820116820180604052508101906102a8919061107e565b155b156103e6576000600260009054906101000a900473ffffffffffffffffffffffffffffffffffffffff1673ffffffffffffffffffffffffffffffffffffffff1663d0def521846040518263ffffffff1660e01b815260040161030c9190611018565b6020604051808303816000875af115801561032b573d6000803e3d6000fd5b505050506040513d601f19601f8201168201806040525081019061034f91906110e1565b9050600160009054906101000a900473ffffffffffffffffffffffffffffffffffffffff1673ffffffffffffffffffffffffffffffffffffffff1663a77626c584836040518363ffffffff1660e01b81526004016103ae92919061111d565b600060405180830381600087803b1580156103c857600080fd5b505af11580156103dc573d6000803e3d6000fd5b50505050506107b0565b600a81121580156104905750600160009054906101000a900473ffffffffffffffffffffffffffffffffffffffff1673ffffffffffffffffffffffffffffffffffffffff16638f64a3ef836040518263ffffffff1660e01b815260040161044d91906111a5565b602060405180830381865afa15801561046a573d6000803e3d6000fd5b505050506040513d601f19601f8201168201806040525081019061048e919061107e565b155b156105cc576000600260009054906101000a900473ffffffffffffffffffffffffffffffffffffffff1673ffffffffffffffffffffffffffffffffffffffff1663d0def521846040518263ffffffff1660e01b81526004016104f291906111a5565b6020604051808303816000875af1158015610511573d6000803e3d6000fd5b505050506040513d601f19601f8201168201806040525081019061053591906110e1565b9050600160009054906101000a900473ffffffffffffffffffffffffffffffffffffffff1673ffffffffffffffffffffffffffffffffffffffff1663a77626c584836040518363ffffffff1660e01b81526004016105949291906111d3565b600060405180830381600087803b1580156105ae57600080fd5b505af11580156105c2573d6000803e3d6000fd5b50505050506107af565b600f81121580156106765750600160009054906101000a900473ffffffffffffffffffffffffffffffffffffffff1673ffffffffffffffffffffffffffffffffffffffff16638f64a3ef836040518263ffffffff1660e01b8152600401610633919061125b565b602060405180830381865afa158015610650573d6000803e3d6000fd5b505050506040513d601f19601f82011682018060405250810190610674919061107e565b155b156107ae576000600260009054906101000a900473ffffffffffffffffffffffffffffffffffffffff1673ffffffffffffffffffffffffffffffffffffffff1663d0def521846040518263ffffffff1660e01b81526004016106d8919061125b565b6020604051808303816000875af11580156106f7573d6000803e3d6000fd5b505050506040513d601f19601f8201168201806040525081019061071b91906110e1565b9050600160009054906101000a900473ffffffffffffffffffffffffffffffffffffffff1673ffffffffffffffffffffffffffffffffffffffff1663a77626c584836040518363ffffffff1660e01b815260040161077a929190611289565b600060405180830381600087803b15801561079457600080fd5b505af11580156107a8573d6000803e3d6000fd5b50505050505b5b5b5050565b6107bc61098e565b6107c66000610a0c565b565b60008060009054906101000a900473ffffffffffffffffffffffffffffffffffffffff16905090565b80600160006101000a81548173ffffffffffffffffffffffffffffffffffffffff021916908373ffffffffffffffffffffffffffffffffffffffff1602179055507f210961446b85476faf7cc4fe331e2a84adb365ebdff77d71b43634f781ae283d816040516108619190610bfc565b60405180910390a150565b6000806009905080600360008773ffffffffffffffffffffffffffffffffffffffff1673ffffffffffffffffffffffffffffffffffffffff16815260200190815260200160002081905550809150509392505050565b6000600360008373ffffffffffffffffffffffffffffffffffffffff1673ffffffffffffffffffffffffffffffffffffffff168152602001908152602001600020549050919050565b61091361098e565b600073ffffffffffffffffffffffffffffffffffffffff168173ffffffffffffffffffffffffffffffffffffffff1603610982576040517f08c379a000000000000000000000000000000000000000000000000000000000815260040161097990611337565b60405180910390fd5b61098b81610a0c565b50565b610996610ad0565b73ffffffffffffffffffffffffffffffffffffffff166109b46107c8565b73ffffffffffffffffffffffffffffffffffffffff1614610a0a576040517f08c379a0000000000000000000000000000000000000000000000000000000008152600401610a01906113a3565b60405180910390fd5b565b60008060009054906101000a900473ffffffffffffffffffffffffffffffffffffffff169050816000806101000a81548173ffffffffffffffffffffffffffffffffffffffff021916908373ffffffffffffffffffffffffffffffffffffffff1602179055508173ffffffffffffffffffffffffffffffffffffffff168173ffffffffffffffffffffffffffffffffffffffff167f8be0079c531659141344cd1fd0a4f28419497f9722a3daafe3b4186f6b6457e060405160405180910390a35050565b600033905090565b6000604051905090565b600080fd5b600080fd5b600073ffffffffffffffffffffffffffffffffffffffff82169050919050565b6000610b1782610aec565b9050919050565b610b2781610b0c565b8114610b3257600080fd5b50565b600081359050610b4481610b1e565b92915050565b600060208284031215610b6057610b5f610ae2565b5b6000610b6e84828501610b35565b91505092915050565b6000819050919050565b610b8a81610b77565b8114610b9557600080fd5b50565b600081359050610ba781610b81565b92915050565b60008060408385031215610bc457610bc3610ae2565b5b6000610bd285828601610b35565b9250506020610be385828601610b98565b9150509250929050565b610bf681610b0c565b82525050565b6000602082019050610c116000830184610bed565b92915050565b600080fd5b6000601f19601f8301169050919050565b7f4e487b7100000000000000000000000000000000000000000000000000000000600052604160045260246000fd5b610c6582610c1c565b810181811067ffffffffffffffff82111715610c8457610c83610c2d565b5b80604052505050565b6000610c97610ad8565b9050610ca38282610c5c565b919050565b600067ffffffffffffffff821115610cc357610cc2610c2d565b5b602082029050602081019050919050565b600080fd5b600080fd5b600067ffffffffffffffff821115610cf957610cf8610c2d565b5b610d0282610c1c565b9050602081019050919050565b82818337600083830152505050565b6000610d31610d2c84610cde565b610c8d565b905082815260208101848484011115610d4d57610d4c610cd9565b5b610d58848285610d0f565b509392505050565b600082601f830112610d7557610d74610c17565b5b8135610d85848260208601610d1e565b91505092915050565b6000610da1610d9c84610ca8565b610c8d565b90508083825260208201905060208402830185811115610dc457610dc3610cd4565b5b835b81811015610e0b57803567ffffffffffffffff811115610de957610de8610c17565b5b808601610df68982610d60565b85526020850194505050602081019050610dc6565b5050509392505050565b600082601f830112610e2a57610e29610c17565b5b8135610e3a848260208601610d8e565b91505092915050565b600067ffffffffffffffff821115610e5e57610e5d610c2d565b5b602082029050602081019050919050565b6000610e82610e7d84610e43565b610c8d565b90508083825260208201905060208402830185811115610ea557610ea4610cd4565b5b835b81811015610ece5780610eba8882610b98565b845260208401935050602081019050610ea7565b5050509392505050565b600082601f830112610eed57610eec610c17565b5b8135610efd848260208601610e6f565b91505092915050565b600080600060608486031215610f1f57610f1e610ae2565b5b6000610f2d86828701610b35565b935050602084013567ffffffffffffffff811115610f4e57610f4d610ae7565b5b610f5a86828701610e15565b925050604084013567ffffffffffffffff811115610f7b57610f7a610ae7565b5b610f8786828701610ed8565b9150509250925092565b610f9a81610b77565b82525050565b6000602082019050610fb56000830184610f91565b92915050565b600082825260208201905092915050565b7f546965724f6e6500000000000000000000000000000000000000000000000000600082015250565b6000611002600783610fbb565b915061100d82610fcc565b602082019050919050565b600060408201905061102d6000830184610bed565b818103602083015261103e81610ff5565b905092915050565b60008115159050919050565b61105b81611046565b811461106657600080fd5b50565b60008151905061107881611052565b92915050565b60006020828403121561109457611093610ae2565b5b60006110a284828501611069565b91505092915050565b6000819050919050565b6110be816110ab565b81146110c957600080fd5b50565b6000815190506110db816110b5565b92915050565b6000602082840312156110f7576110f6610ae2565b5b6000611105848285016110cc565b91505092915050565b611117816110ab565b82525050565b60006060820190506111326000830185610bed565b818103602083015261114381610ff5565b9050611152604083018461110e565b9392505050565b7f5469657254776f00000000000000000000000000000000000000000000000000600082015250565b600061118f600783610fbb565b915061119a82611159565b602082019050919050565b60006040820190506111ba6000830184610bed565b81810360208301526111cb81611182565b905092915050565b60006060820190506111e86000830185610bed565b81810360208301526111f981611182565b9050611208604083018461110e565b9392505050565b7f5469657254687265650000000000000000000000000000000000000000000000600082015250565b6000611245600983610fbb565b91506112508261120f565b602082019050919050565b60006040820190506112706000830184610bed565b818103602083015261128181611238565b905092915050565b600060608201905061129e6000830185610bed565b81810360208301526112af81611238565b90506112be604083018461110e565b9392505050565b7f4f776e61626c653a206e6577206f776e657220697320746865207a65726f206160008201527f6464726573730000000000000000000000000000000000000000000000000000602082015250565b6000611321602683610fbb565b915061132c826112c5565b604082019050919050565b6000602082019050818103600083015261135081611314565b9050919050565b7f4f776e61626c653a2063616c6c6572206973206e6f7420746865206f776e6572600082015250565b600061138d602083610fbb565b915061139882611357565b602082019050919050565b600060208201905081810360008301526113bc81611380565b905091905056fea26469706673582212205d151fa0c004cc19e551ce8df756573b090db171d81d5def73795f50725dea3464736f6c63430008130033",
  "immutableReferences": {},
  "source": "// SPDX-License-Identifier: UNLICENSED\r\npragma solidity ^0.8.19;\r\n\r\nimport \"@openzeppelin/contracts/token/ERC721/extensions/ERC721URIStorage.sol\";\r\nimport \"@openzeppelin/contracts/access/Ownable.sol\";\r\n\r\ninterface MRegister{\r\n    function hasMintedSBT(address _address, string memory _tier) external view returns (bool _hasMinted);\r\n    function setMintedSBT(address _address, string memory _tier, uint256 _sbtId) external;\r\n}\r\ninterface MHandler{\r\n    function mint(address _address, string memory _tier) external returns (uint256);\r\n}\r\ncontract MintingManager is Ownable {\r\n    MRegister MReg;\r\n    MHandler MHand;\r\n    mapping(address => int) score;\r\n\r\n    event setMRegAddrInMManager(address _address);\r\n    event setMHandAddrInMManager(address _address);\r\n    constructor() {}\r\n\r\n    function setMRegAddress(address _address) external{\r\n        MReg = MRegister(_address);\r\n        emit setMRegAddrInMManager(_address);\r\n    }\r\n\r\n    function setMHandAddress(address _address) external{\r\n        MHand = MHandler(_address);\r\n        emit setMHandAddrInMManager(_address);\r\n    }\r\n\r\n    function calculateScore(address walletAddress, string[] memory chains, \r\n            int[] memory numTransactions) public returns (int _score){\r\n        int scoreValue = 9;\r\n        score[walletAddress] = scoreValue;\r\n        return scoreValue;\r\n    }\r\n\r\n    function getScore(address _walletAddress) public view returns(int){\r\n        return score[_walletAddress];\r\n    }\r\n\r\n    function mintSBTLogic(address _walletAddress, int _score) public {\r\n        if(_score >=5 && !MReg.hasMintedSBT(_walletAddress, \"TierOne\")){\r\n            uint256 newSbtId = MHand.mint(_walletAddress, \"TierOne\");\r\n            MReg.setMintedSBT(_walletAddress, \"TierOne\", newSbtId);\r\n        } else if(_score >=10 && !MReg.hasMintedSBT(_walletAddress, \"TierTwo\")){\r\n            uint256 newSbtId = MHand.mint(_walletAddress, \"TierTwo\");\r\n            MReg.setMintedSBT(_walletAddress, \"TierTwo\", newSbtId);\r\n        } else if(_score >=15 && !MReg.hasMintedSBT(_walletAddress, \"TierThree\")){\r\n            uint256 newSbtId = MHand.mint(_walletAddress, \"TierThree\");\r\n            MReg.setMintedSBT(_walletAddress, \"TierThree\", newSbtId);\r\n        }\r\n    }\r\n\r\n    // function updateAllScores() {\r\n\r\n    // }\r\n}\r\n",
  "sourcePath": "C:\\Users\\Alex\\Desktop\\GreenWalletV2\\contracts\\MintingManager.sol",
  "compiler": {
    "name": "solc",
    "version": "0.8.19+commit.7dd6d404.Emscripten.clang"
  },
  "schemaVersion": "3.4.16",
  "updatedAt": "2024-09-28T16:41:54.811Z",
  "networkType": "ethereum",
  "devdoc": {
    "kind": "dev",
    "methods": {
      "owner()": {
        "details": "Returns the address of the current owner."
      },
      "renounceOwnership()": {
        "details": "Leaves the contract without owner. It will not be possible to call `onlyOwner` functions. Can only be called by the current owner. NOTE: Renouncing ownership will leave the contract without an owner, thereby disabling any functionality that is only available to the owner."
      },
      "transferOwnership(address)": {
        "details": "Transfers ownership of the contract to a new account (`newOwner`). Can only be called by the current owner."
      }
    },
    "version": 1
  },
  "userdoc": {
    "kind": "user",
    "methods": {},
    "version": 1
  }
}