{
  "contractName": "MintingHandler",
  "abi": [
    {
      "inputs": [],
      "stateMutability": "nonpayable",
      "type": "constructor"
    },
    {
      "anonymous": false,
      "inputs": [
        {
          "indexed": true,
          "internalType": "address",
          "name": "previousOwner",
          "type": "address"
        },
        {
          "indexed": true,
          "internalType": "address",
          "name": "newOwner",
          "type": "address"
        }
      ],
      "name": "OwnershipTransferred",
      "type": "event"
    },
    {
      "anonymous": false,
      "inputs": [
        {
          "indexed": false,
          "internalType": "address",
          "name": "_address",
          "type": "address"
        }
      ],
      "name": "setTThreeAddr",
      "type": "event"
    },
    {
      "anonymous": false,
      "inputs": [
        {
          "indexed": false,
          "internalType": "address",
          "name": "_address",
          "type": "address"
        }
      ],
      "name": "setTTwoAddr",
      "type": "event"
    },
    {
      "anonymous": false,
      "inputs": [
        {
          "indexed": false,
          "internalType": "address",
          "name": "_address",
          "type": "address"
        }
      ],
      "name": "setToneAddr",
      "type": "event"
    },
    {
      "inputs": [],
      "name": "owner",
      "outputs": [
        {
          "internalType": "address",
          "name": "",
          "type": "address"
        }
      ],
      "stateMutability": "view",
      "type": "function",
      "constant": true
    },
    {
      "inputs": [],
      "name": "renounceOwnership",
      "outputs": [],
      "stateMutability": "nonpayable",
      "type": "function"
    },
    {
      "inputs": [
        {
          "internalType": "address",
          "name": "newOwner",
          "type": "address"
        }
      ],
      "name": "transferOwnership",
      "outputs": [],
      "stateMutability": "nonpayable",
      "type": "function"
    },
    {
      "inputs": [
        {
          "internalType": "address",
          "name": "_address",
          "type": "address"
        }
      ],
      "name": "setTOneAddress",
      "outputs": [],
      "stateMutability": "nonpayable",
      "type": "function"
    },
    {
      "inputs": [
        {
          "internalType": "address",
          "name": "_address",
          "type": "address"
        }
      ],
      "name": "setTTwoAddress",
      "outputs": [],
      "stateMutability": "nonpayable",
      "type": "function"
    },
    {
      "inputs": [
        {
          "internalType": "address",
          "name": "_address",
          "type": "address"
        }
      ],
      "name": "setTThreeAddress",
      "outputs": [],
      "stateMutability": "nonpayable",
      "type": "function"
    },
    {
      "inputs": [
        {
          "internalType": "address",
          "name": "_address",
          "type": "address"
        },
        {
          "internalType": "string",
          "name": "_tier",
          "type": "string"
        }
      ],
      "name": "mint",
      "outputs": [
        {
          "internalType": "uint256",
          "name": "_sbtId",
          "type": "uint256"
        }
      ],
      "stateMutability": "nonpayable",
      "type": "function"
    }
  ],
  "bytecode": "0x608060405234801561001057600080fd5b5061002d61002261003260201b60201c565b61003a60201b60201c565b6100fe565b600033905090565b60008060009054906101000a900473ffffffffffffffffffffffffffffffffffffffff169050816000806101000a81548173ffffffffffffffffffffffffffffffffffffffff021916908373ffffffffffffffffffffffffffffffffffffffff1602179055508173ffffffffffffffffffffffffffffffffffffffff168173ffffffffffffffffffffffffffffffffffffffff167f8be0079c531659141344cd1fd0a4f28419497f9722a3daafe3b4186f6b6457e060405160405180910390a35050565b610bd88061010d6000396000f3fe608060405234801561001057600080fd5b506004361061007d5760003560e01c80638da5cb5b1161005b5780638da5cb5b146100c4578063a5ec14ad146100e2578063d0def521146100fe578063f2fde38b1461012e5761007d565b8063331e7d3f14610082578063715018a61461009e5780637e47781c146100a8575b600080fd5b61009c6004803603810190610097919061080d565b61014a565b005b6100a66101c5565b005b6100c260048036038101906100bd919061080d565b6101d9565b005b6100cc610254565b6040516100d99190610849565b60405180910390f35b6100fc60048036038101906100f7919061080d565b61027d565b005b610118600480360381019061011391906109aa565b6102f8565b6040516101259190610a1f565b60405180910390f35b6101486004803603810190610143919061080d565b6105ce565b005b80600360006101000a81548173ffffffffffffffffffffffffffffffffffffffff021916908373ffffffffffffffffffffffffffffffffffffffff1602179055507f789f4d7843cd9f36186f7d3c8ad9af4d09621d59567fa857a72730814515e77a816040516101ba9190610849565b60405180910390a150565b6101cd610651565b6101d760006106cf565b565b80600260006101000a81548173ffffffffffffffffffffffffffffffffffffffff021916908373ffffffffffffffffffffffffffffffffffffffff1602179055507ff76604c60847a7a86a9b795cf0b582214a9b48f801c31d3979bc4b1880b71155816040516102499190610849565b60405180910390a150565b60008060009054906101000a900473ffffffffffffffffffffffffffffffffffffffff16905090565b80600160006101000a81548173ffffffffffffffffffffffffffffffffffffffff021916908373ffffffffffffffffffffffffffffffffffffffff1602179055507f091dbfe0d3816a04c420df70c0e0bac5b5245bd2884ad1edde618324fe846565816040516102ed9190610849565b60405180910390a150565b60006040518060400160405280600781526020017f546965724f6e6500000000000000000000000000000000000000000000000000815250805190602001208280519060200120036103e957600160009054906101000a900473ffffffffffffffffffffffffffffffffffffffff1673ffffffffffffffffffffffffffffffffffffffff16636a627842846040518263ffffffff1660e01b815260040161039f9190610849565b6020604051808303816000875af11580156103be573d6000803e3d6000fd5b505050506040513d601f19601f820116820180604052508101906103e29190610a66565b90506105c8565b6040518060400160405280600781526020017f5469657254776f00000000000000000000000000000000000000000000000000815250805190602001208280519060200120036104d857600260009054906101000a900473ffffffffffffffffffffffffffffffffffffffff1673ffffffffffffffffffffffffffffffffffffffff16636a627842846040518263ffffffff1660e01b815260040161048e9190610849565b6020604051808303816000875af11580156104ad573d6000803e3d6000fd5b505050506040513d601f19601f820116820180604052508101906104d19190610a66565b90506105c8565b6040518060400160405280600981526020017f5469657254687265650000000000000000000000000000000000000000000000815250805190602001208280519060200120036105c757600360009054906101000a900473ffffffffffffffffffffffffffffffffffffffff1673ffffffffffffffffffffffffffffffffffffffff16636a627842846040518263ffffffff1660e01b815260040161057d9190610849565b6020604051808303816000875af115801561059c573d6000803e3d6000fd5b505050506040513d601f19601f820116820180604052508101906105c09190610a66565b90506105c8565b5b92915050565b6105d6610651565b600073ffffffffffffffffffffffffffffffffffffffff168173ffffffffffffffffffffffffffffffffffffffff1603610645576040517f08c379a000000000000000000000000000000000000000000000000000000000815260040161063c90610b16565b60405180910390fd5b61064e816106cf565b50565b610659610793565b73ffffffffffffffffffffffffffffffffffffffff16610677610254565b73ffffffffffffffffffffffffffffffffffffffff16146106cd576040517f08c379a00000000000000000000000000000000000000000000000000000000081526004016106c490610b82565b60405180910390fd5b565b60008060009054906101000a900473ffffffffffffffffffffffffffffffffffffffff169050816000806101000a81548173ffffffffffffffffffffffffffffffffffffffff021916908373ffffffffffffffffffffffffffffffffffffffff1602179055508173ffffffffffffffffffffffffffffffffffffffff168173ffffffffffffffffffffffffffffffffffffffff167f8be0079c531659141344cd1fd0a4f28419497f9722a3daafe3b4186f6b6457e060405160405180910390a35050565b600033905090565b6000604051905090565b600080fd5b600080fd5b600073ffffffffffffffffffffffffffffffffffffffff82169050919050565b60006107da826107af565b9050919050565b6107ea816107cf565b81146107f557600080fd5b50565b600081359050610807816107e1565b92915050565b600060208284031215610823576108226107a5565b5b6000610831848285016107f8565b91505092915050565b610843816107cf565b82525050565b600060208201905061085e600083018461083a565b92915050565b600080fd5b600080fd5b6000601f19601f8301169050919050565b7f4e487b7100000000000000000000000000000000000000000000000000000000600052604160045260246000fd5b6108b78261086e565b810181811067ffffffffffffffff821117156108d6576108d561087f565b5b80604052505050565b60006108e961079b565b90506108f582826108ae565b919050565b600067ffffffffffffffff8211156109155761091461087f565b5b61091e8261086e565b9050602081019050919050565b82818337600083830152505050565b600061094d610948846108fa565b6108df565b90508281526020810184848401111561096957610968610869565b5b61097484828561092b565b509392505050565b600082601f83011261099157610990610864565b5b81356109a184826020860161093a565b91505092915050565b600080604083850312156109c1576109c06107a5565b5b60006109cf858286016107f8565b925050602083013567ffffffffffffffff8111156109f0576109ef6107aa565b5b6109fc8582860161097c565b9150509250929050565b6000819050919050565b610a1981610a06565b82525050565b6000602082019050610a346000830184610a10565b92915050565b610a4381610a06565b8114610a4e57600080fd5b50565b600081519050610a6081610a3a565b92915050565b600060208284031215610a7c57610a7b6107a5565b5b6000610a8a84828501610a51565b91505092915050565b600082825260208201905092915050565b7f4f776e61626c653a206e6577206f776e657220697320746865207a65726f206160008201527f6464726573730000000000000000000000000000000000000000000000000000602082015250565b6000610b00602683610a93565b9150610b0b82610aa4565b604082019050919050565b60006020820190508181036000830152610b2f81610af3565b9050919050565b7f4f776e61626c653a2063616c6c6572206973206e6f7420746865206f776e6572600082015250565b6000610b6c602083610a93565b9150610b7782610b36565b602082019050919050565b60006020820190508181036000830152610b9b81610b5f565b905091905056fea2646970667358221220f3ff78febe807480526a90b86c7686dbf3b949953ac71d8dda6d6b8160c0dc7964736f6c63430008130033",
  "immutableReferences": {},
  "source": "// SPDX-License-Identifier: UNLICENSED\r\npragma solidity ^0.8.19;\r\n\r\nimport \"@openzeppelin/contracts/token/ERC721/extensions/ERC721URIStorage.sol\";\r\nimport \"@openzeppelin/contracts/access/Ownable.sol\";\r\n\r\ninterface TierOne{\r\n    function mint(address recipient) external returns (uint256 _sbtId);\r\n}\r\ninterface TierTwo{\r\n    function mint(address recipient) external returns (uint256 _sbtId);\r\n}\r\ninterface TierThree{\r\n    function mint(address recipient) external returns (uint256 _sbtId);\r\n}\r\n\r\ncontract MintingHandler is Ownable {\r\n    TierOne TOne;\r\n    TierTwo TTwo;\r\n    TierThree TThree;\r\n    \r\n    event setToneAddr(address _address);\r\n    event setTTwoAddr(address _address);\r\n    event setTThreeAddr(address _address);\r\n\r\n    \r\n    function setTOneAddress(address _address) external{\r\n        TOne = TierOne(_address);\r\n        emit setToneAddr(_address);\r\n    }\r\n\r\n    function setTTwoAddress(address _address) external{\r\n        TTwo = TierTwo(_address);\r\n        emit setTTwoAddr(_address);\r\n    }\r\n\r\n    function setTThreeAddress(address _address) external{\r\n        TThree = TierThree(_address);\r\n        emit setTThreeAddr(_address);\r\n    }\r\n\r\n    constructor(){}\r\n\r\n    function mint(address _address, string memory _tier) public returns (uint256 _sbtId) {\r\n        if(keccak256(bytes(_tier)) == keccak256(bytes(\"TierOne\"))){\r\n            return TOne.mint(_address);\r\n        } else if(keccak256(bytes(_tier)) == keccak256(bytes(\"TierTwo\"))) {\r\n            return TTwo.mint(_address);\r\n        } else if(keccak256(bytes(_tier)) == keccak256(bytes(\"TierThree\"))) {\r\n            return TThree.mint(_address);\r\n        }\r\n    }\r\n}",
  "sourcePath": "C:\\Users\\Alex\\Desktop\\GreenWalletV2\\contracts\\MintingHandler.sol",
  "compiler": {
    "name": "solc",
    "version": "0.8.19+commit.7dd6d404.Emscripten.clang"
  },
  "schemaVersion": "3.4.16",
  "updatedAt": "2024-09-28T16:41:54.804Z",
  "networkType": "ethereum",
  "devdoc": {
    "kind": "dev",
    "methods": {
      "owner()": {
        "details": "Returns the address of the current owner."
      },
      "renounceOwnership()": {
        "details": "Leaves the contract without owner. It will not be possible to call `onlyOwner` functions. Can only be called by the current owner. NOTE: Renouncing ownership will leave the contract without an owner, thereby disabling any functionality that is only available to the owner."
      },
      "transferOwnership(address)": {
        "details": "Transfers ownership of the contract to a new account (`newOwner`). Can only be called by the current owner."
      }
    },
    "version": 1
  },
  "userdoc": {
    "kind": "user",
    "methods": {},
    "version": 1
  }
}