{
  "contractName": "TierOne",
  "abi": [
    {
      "inputs": [
        {
          "internalType": "string",
          "name": "baseTokenURI",
          "type": "string"
        }
      ],
      "stateMutability": "nonpayable",
      "type": "constructor"
    },
    {
      "anonymous": false,
      "inputs": [
        {
          "indexed": true,
          "internalType": "address",
          "name": "owner",
          "type": "address"
        },
        {
          "indexed": true,
          "internalType": "address",
          "name": "approved",
          "type": "address"
        },
        {
          "indexed": true,
          "internalType": "uint256",
          "name": "tokenId",
          "type": "uint256"
        }
      ],
      "name": "Approval",
      "type": "event"
    },
    {
      "anonymous": false,
      "inputs": [
        {
          "indexed": true,
          "internalType": "address",
          "name": "owner",
          "type": "address"
        },
        {
          "indexed": true,
          "internalType": "address",
          "name": "operator",
          "type": "address"
        },
        {
          "indexed": false,
          "internalType": "bool",
          "name": "approved",
          "type": "bool"
        }
      ],
      "name": "ApprovalForAll",
      "type": "event"
    },
    {
      "anonymous": false,
      "inputs": [
        {
          "indexed": false,
          "internalType": "uint256",
          "name": "_fromTokenId",
          "type": "uint256"
        },
        {
          "indexed": false,
          "internalType": "uint256",
          "name": "_toTokenId",
          "type": "uint256"
        }
      ],
      "name": "BatchMetadataUpdate",
      "type": "event"
    },
    {
      "anonymous": false,
      "inputs": [
        {
          "indexed": false,
          "internalType": "uint256",
          "name": "_tokenId",
          "type": "uint256"
        }
      ],
      "name": "MetadataUpdate",
      "type": "event"
    },
    {
      "anonymous": false,
      "inputs": [
        {
          "indexed": true,
          "internalType": "address",
          "name": "from",
          "type": "address"
        },
        {
          "indexed": true,
          "internalType": "address",
          "name": "to",
          "type": "address"
        },
        {
          "indexed": true,
          "internalType": "uint256",
          "name": "tokenId",
          "type": "uint256"
        }
      ],
      "name": "Transfer",
      "type": "event"
    },
    {
      "anonymous": false,
      "inputs": [
        {
          "indexed": false,
          "internalType": "address",
          "name": "_address",
          "type": "address"
        }
      ],
      "name": "mintedTOne",
      "type": "event"
    },
    {
      "inputs": [
        {
          "internalType": "address",
          "name": "owner",
          "type": "address"
        }
      ],
      "name": "balanceOf",
      "outputs": [
        {
          "internalType": "uint256",
          "name": "",
          "type": "uint256"
        }
      ],
      "stateMutability": "view",
      "type": "function",
      "constant": true
    },
    {
      "inputs": [
        {
          "internalType": "uint256",
          "name": "tokenId",
          "type": "uint256"
        }
      ],
      "name": "getApproved",
      "outputs": [
        {
          "internalType": "address",
          "name": "",
          "type": "address"
        }
      ],
      "stateMutability": "view",
      "type": "function",
      "constant": true
    },
    {
      "inputs": [
        {
          "internalType": "address",
          "name": "owner",
          "type": "address"
        },
        {
          "internalType": "address",
          "name": "operator",
          "type": "address"
        }
      ],
      "name": "isApprovedForAll",
      "outputs": [
        {
          "internalType": "bool",
          "name": "",
          "type": "bool"
        }
      ],
      "stateMutability": "view",
      "type": "function",
      "constant": true
    },
    {
      "inputs": [],
      "name": "name",
      "outputs": [
        {
          "internalType": "string",
          "name": "",
          "type": "string"
        }
      ],
      "stateMutability": "view",
      "type": "function",
      "constant": true
    },
    {
      "inputs": [
        {
          "internalType": "uint256",
          "name": "tokenId",
          "type": "uint256"
        }
      ],
      "name": "ownerOf",
      "outputs": [
        {
          "internalType": "address",
          "name": "",
          "type": "address"
        }
      ],
      "stateMutability": "view",
      "type": "function",
      "constant": true
    },
    {
      "inputs": [
        {
          "internalType": "bytes4",
          "name": "interfaceId",
          "type": "bytes4"
        }
      ],
      "name": "supportsInterface",
      "outputs": [
        {
          "internalType": "bool",
          "name": "",
          "type": "bool"
        }
      ],
      "stateMutability": "view",
      "type": "function",
      "constant": true
    },
    {
      "inputs": [],
      "name": "symbol",
      "outputs": [
        {
          "internalType": "string",
          "name": "",
          "type": "string"
        }
      ],
      "stateMutability": "view",
      "type": "function",
      "constant": true
    },
    {
      "inputs": [
        {
          "internalType": "uint256",
          "name": "tokenId",
          "type": "uint256"
        }
      ],
      "name": "tokenURI",
      "outputs": [
        {
          "internalType": "string",
          "name": "",
          "type": "string"
        }
      ],
      "stateMutability": "view",
      "type": "function",
      "constant": true
    },
    {
      "inputs": [
        {
          "internalType": "string",
          "name": "baseTokenURI",
          "type": "string"
        }
      ],
      "name": "setBaseTokenURI",
      "outputs": [],
      "stateMutability": "nonpayable",
      "type": "function"
    },
    {
      "inputs": [
        {
          "internalType": "address",
          "name": "_recipient",
          "type": "address"
        }
      ],
      "name": "mint",
      "outputs": [
        {
          "internalType": "uint256",
          "name": "_sbtId",
          "type": "uint256"
        }
      ],
      "stateMutability": "nonpayable",
      "type": "function"
    },
    {
      "inputs": [
        {
          "internalType": "address",
          "name": "wallet",
          "type": "address"
        }
      ],
      "name": "checkOwnership",
      "outputs": [
        {
          "internalType": "bool",
          "name": "",
          "type": "bool"
        }
      ],
      "stateMutability": "view",
      "type": "function",
      "constant": true
    },
    {
      "inputs": [
        {
          "internalType": "uint256",
          "name": "tokenId",
          "type": "uint256"
        }
      ],
      "name": "burn",
      "outputs": [],
      "stateMutability": "nonpayable",
      "type": "function"
    },
    {
      "inputs": [
        {
          "internalType": "address",
          "name": "to",
          "type": "address"
        },
        {
          "internalType": "uint256",
          "name": "tokenId",
          "type": "uint256"
        }
      ],
      "name": "approve",
      "outputs": [],
      "stateMutability": "nonpayable",
      "type": "function"
    },
    {
      "inputs": [
        {
          "internalType": "address",
          "name": "operator",
          "type": "address"
        },
        {
          "internalType": "bool",
          "name": "approved",
          "type": "bool"
        }
      ],
      "name": "setApprovalForAll",
      "outputs": [],
      "stateMutability": "nonpayable",
      "type": "function"
    },
    {
      "inputs": [
        {
          "internalType": "address",
          "name": "from",
          "type": "address"
        },
        {
          "internalType": "address",
          "name": "to",
          "type": "address"
        },
        {
          "internalType": "uint256",
          "name": "tokenId",
          "type": "uint256"
        }
      ],
      "name": "transferFrom",
      "outputs": [],
      "stateMutability": "nonpayable",
      "type": "function"
    },
    {
      "inputs": [
        {
          "internalType": "address",
          "name": "from",
          "type": "address"
        },
        {
          "internalType": "address",
          "name": "to",
          "type": "address"
        },
        {
          "internalType": "uint256",
          "name": "tokenId",
          "type": "uint256"
        }
      ],
      "name": "safeTransferFrom",
      "outputs": [],
      "stateMutability": "nonpayable",
      "type": "function"
    },
    {
      "inputs": [
        {
          "internalType": "address",
          "name": "from",
          "type": "address"
        },
        {
          "internalType": "address",
          "name": "to",
          "type": "address"
        },
        {
          "internalType": "uint256",
          "name": "tokenId",
          "type": "uint256"
        },
        {
          "internalType": "bytes",
          "name": "_data",
          "type": "bytes"
        }
      ],
      "name": "safeTransferFrom",
      "outputs": [],
      "stateMutability": "nonpayable",
      "type": "function"
    }
  ],
  "bytecode": "0x60806040523480156200001157600080fd5b5060405162002d1438038062002d1483398181016040528101906200003791906200027d565b6040518060400160405280600781526020017f546965724f6e65000000000000000000000000000000000000000000000000008152506040518060400160405280600281526020017f54310000000000000000000000000000000000000000000000000000000000008152508160009081620000b4919062000519565b508060019081620000c6919062000519565b5050508060089081620000da919062000519565b5060016007819055505062000600565b6000604051905090565b600080fd5b600080fd5b600080fd5b600080fd5b6000601f19601f8301169050919050565b7f4e487b7100000000000000000000000000000000000000000000000000000000600052604160045260246000fd5b620001538262000108565b810181811067ffffffffffffffff8211171562000175576200017462000119565b5b80604052505050565b60006200018a620000ea565b905062000198828262000148565b919050565b600067ffffffffffffffff821115620001bb57620001ba62000119565b5b620001c68262000108565b9050602081019050919050565b60005b83811015620001f3578082015181840152602081019050620001d6565b60008484015250505050565b60006200021662000210846200019d565b6200017e565b90508281526020810184848401111562000235576200023462000103565b5b62000242848285620001d3565b509392505050565b600082601f830112620002625762000261620000fe565b5b815162000274848260208601620001ff565b91505092915050565b600060208284031215620002965762000295620000f4565b5b600082015167ffffffffffffffff811115620002b757620002b6620000f9565b5b620002c5848285016200024a565b91505092915050565b600081519050919050565b7f4e487b7100000000000000000000000000000000000000000000000000000000600052602260045260246000fd5b600060028204905060018216806200032157607f821691505b602082108103620003375762000336620002d9565b5b50919050565b60008190508160005260206000209050919050565b60006020601f8301049050919050565b600082821b905092915050565b600060088302620003a17fffffffffffffffffffffffffffffffffffffffffffffffffffffffffffffffff8262000362565b620003ad868362000362565b95508019841693508086168417925050509392505050565b6000819050919050565b6000819050919050565b6000620003fa620003f4620003ee84620003c5565b620003cf565b620003c5565b9050919050565b6000819050919050565b6200041683620003d9565b6200042e620004258262000401565b8484546200036f565b825550505050565b600090565b6200044562000436565b620004528184846200040b565b505050565b5b818110156200047a576200046e6000826200043b565b60018101905062000458565b5050565b601f821115620004c95762000493816200033d565b6200049e8462000352565b81016020851015620004ae578190505b620004c6620004bd8562000352565b83018262000457565b50505b505050565b600082821c905092915050565b6000620004ee60001984600802620004ce565b1980831691505092915050565b6000620005098383620004db565b9150826002028217905092915050565b6200052482620002ce565b67ffffffffffffffff81111562000540576200053f62000119565b5b6200054c825462000308565b620005598282856200047e565b600060209050601f8311600181146200059157600084156200057c578287015190505b620005888582620004fb565b865550620005f8565b601f198416620005a1866200033d565b60005b82811015620005cb57848901518255600182019150602085019450602081019050620005a4565b86831015620005eb5784890151620005e7601f891682620004db565b8355505b6001600288020188555050505b505050505050565b61270480620006106000396000f3fe608060405234801561001057600080fd5b506004361061010b5760003560e01c806342966c68116100a257806395d89b411161007157806395d89b41146102da578063a22cb465146102f8578063b88d4fde14610314578063c87b56dd14610330578063e985e9c5146103605761010b565b806342966c681461022e5780636352211e1461024a5780636a6278421461027a57806370a08231146102aa5761010b565b80630c8b234e116100de5780630c8b234e146101aa57806323b872dd146101da57806330176e13146101f657806342842e0e146102125761010b565b806301ffc9a71461011057806306fdde0314610140578063081812fc1461015e578063095ea7b31461018e575b600080fd5b61012a60048036038101906101259190611840565b610390565b6040516101379190611888565b60405180910390f35b6101486103f1565b6040516101559190611933565b60405180910390f35b6101786004803603810190610173919061198b565b610483565b60405161018591906119f9565b60405180910390f35b6101a860048036038101906101a39190611a40565b6104c9565b005b6101c460048036038101906101bf9190611a80565b610546565b6040516101d19190611888565b60405180910390f35b6101f460048036038101906101ef9190611aad565b6105ba565b005b610210600480360381019061020b9190611c35565b610600565b005b61022c60048036038101906102279190611aad565b610613565b005b6102486004803603810190610243919061198b565b610633565b005b610264600480360381019061025f919061198b565b61068f565b60405161027191906119f9565b60405180910390f35b610294600480360381019061028f9190611a80565b610715565b6040516102a19190611c8d565b60405180910390f35b6102c460048036038101906102bf9190611a80565b610784565b6040516102d19190611c8d565b60405180910390f35b6102e261083b565b6040516102ef9190611933565b60405180910390f35b610312600480360381019061030d9190611cd4565b6108cd565b005b61032e60048036038101906103299190611db5565b61091c565b005b61034a6004803603810190610345919061198b565b610963565b6040516103579190611933565b60405180910390f35b61037a60048036038101906103759190611e38565b610a75565b6040516103879190611888565b60405180910390f35b6000634906490660e01b7bffffffffffffffffffffffffffffffffffffffffffffffffffffffff1916827bffffffffffffffffffffffffffffffffffffffffffffffffffffffff191614806103ea57506103e982610b09565b5b9050919050565b60606000805461040090611ea7565b80601f016020809104026020016040519081016040528092919081815260200182805461042c90611ea7565b80156104795780601f1061044e57610100808354040283529160200191610479565b820191906000526020600020905b81548152906001019060200180831161045c57829003601f168201915b5050505050905090565b600061048e82610beb565b6004600083815260200190815260200160002060009054906101000a900473ffffffffffffffffffffffffffffffffffffffff169050919050565b600073ffffffffffffffffffffffffffffffffffffffff168273ffffffffffffffffffffffffffffffffffffffff1614610538576040517f08c379a000000000000000000000000000000000000000000000000000000000815260040161052f90611f24565b60405180910390fd5b6105428282610c36565b5050565b600080600190505b60075481116105af578273ffffffffffffffffffffffffffffffffffffffff166105778261068f565b73ffffffffffffffffffffffffffffffffffffffff160361059c5760019150506105b5565b80806105a790611f73565b91505061054e565b50600090505b919050565b60006105fb576040517f08c379a00000000000000000000000000000000000000000000000000000000081526004016105f290611f24565b60405180910390fd5b505050565b806008908161060f9190612167565b5050565b61062e8383836040518060200160405280600081525061091c565b505050565b61064461063e610d4d565b82610d55565b610683576040517f08c379a000000000000000000000000000000000000000000000000000000000815260040161067a90612285565b60405180910390fd5b61068c81610dea565b50565b60008061069b83610e3d565b9050600073ffffffffffffffffffffffffffffffffffffffff168173ffffffffffffffffffffffffffffffffffffffff160361070c576040517f08c379a0000000000000000000000000000000000000000000000000000000008152600401610703906122f1565b60405180910390fd5b80915050919050565b600060016007600082825461072a9190612311565b92505081905550600060075490506107428382610e7a565b7ff8432d12d1b4b8c868234dd3f3a58973a54ab3d17059d4c403920c508d65a9728360405161077191906119f9565b60405180910390a1600754915050919050565b60008073ffffffffffffffffffffffffffffffffffffffff168273ffffffffffffffffffffffffffffffffffffffff16036107f4576040517f08c379a00000000000000000000000000000000000000000000000000000000081526004016107eb906123b7565b60405180910390fd5b600360008373ffffffffffffffffffffffffffffffffffffffff1673ffffffffffffffffffffffffffffffffffffffff168152602001908152602001600020549050919050565b60606001805461084a90611ea7565b80601f016020809104026020016040519081016040528092919081815260200182805461087690611ea7565b80156108c35780601f10610898576101008083540402835291602001916108c3565b820191906000526020600020905b8154815290600101906020018083116108a657829003601f168201915b5050505050905090565b801561090e576040517f08c379a000000000000000000000000000000000000000000000000000000000815260040161090590611f24565b60405180910390fd5b6109188282611097565b5050565b600061095d576040517f08c379a000000000000000000000000000000000000000000000000000000000815260040161095490611f24565b60405180910390fd5b50505050565b606061096e82610beb565b600060066000848152602001908152602001600020805461098e90611ea7565b80601f01602080910402602001604051908101604052809291908181526020018280546109ba90611ea7565b8015610a075780601f106109dc57610100808354040283529160200191610a07565b820191906000526020600020905b8154815290600101906020018083116109ea57829003601f168201915b505050505090506000610a186110ad565b90506000815103610a2d578192505050610a70565b600082511115610a62578082604051602001610a4a929190612413565b60405160208183030381529060405292505050610a70565b610a6b846110c4565b925050505b919050565b6000600560008473ffffffffffffffffffffffffffffffffffffffff1673ffffffffffffffffffffffffffffffffffffffff16815260200190815260200160002060008373ffffffffffffffffffffffffffffffffffffffff1673ffffffffffffffffffffffffffffffffffffffff16815260200190815260200160002060009054906101000a900460ff16905092915050565b60007f80ac58cd000000000000000000000000000000000000000000000000000000007bffffffffffffffffffffffffffffffffffffffffffffffffffffffff1916827bffffffffffffffffffffffffffffffffffffffffffffffffffffffff19161480610bd457507f5b5e139f000000000000000000000000000000000000000000000000000000007bffffffffffffffffffffffffffffffffffffffffffffffffffffffff1916827bffffffffffffffffffffffffffffffffffffffffffffffffffffffff1916145b80610be45750610be38261112c565b5b9050919050565b610bf481611196565b610c33576040517f08c379a0000000000000000000000000000000000000000000000000000000008152600401610c2a906122f1565b60405180910390fd5b50565b6000610c418261068f565b90508073ffffffffffffffffffffffffffffffffffffffff168373ffffffffffffffffffffffffffffffffffffffff1603610cb1576040517f08c379a0000000000000000000000000000000000000000000000000000000008152600401610ca8906124a9565b60405180910390fd5b8073ffffffffffffffffffffffffffffffffffffffff16610cd0610d4d565b73ffffffffffffffffffffffffffffffffffffffff161480610cff5750610cfe81610cf9610d4d565b610a75565b5b610d3e576040517f08c379a0000000000000000000000000000000000000000000000000000000008152600401610d359061253b565b60405180910390fd5b610d4883836111d7565b505050565b600033905090565b600080610d618361068f565b90508073ffffffffffffffffffffffffffffffffffffffff168473ffffffffffffffffffffffffffffffffffffffff161480610da35750610da28185610a75565b5b80610de157508373ffffffffffffffffffffffffffffffffffffffff16610dc984610483565b73ffffffffffffffffffffffffffffffffffffffff16145b91505092915050565b610df381611290565b6000600660008381526020019081526020016000208054610e1390611ea7565b905014610e3a57600660008281526020019081526020016000206000610e399190611777565b5b50565b60006002600083815260200190815260200160002060009054906101000a900473ffffffffffffffffffffffffffffffffffffffff169050919050565b600073ffffffffffffffffffffffffffffffffffffffff168273ffffffffffffffffffffffffffffffffffffffff1603610ee9576040517f08c379a0000000000000000000000000000000000000000000000000000000008152600401610ee0906125a7565b60405180910390fd5b610ef281611196565b15610f32576040517f08c379a0000000000000000000000000000000000000000000000000000000008152600401610f2990612613565b60405180910390fd5b610f406000838360016113de565b610f4981611196565b15610f89576040517f08c379a0000000000000000000000000000000000000000000000000000000008152600401610f8090612613565b60405180910390fd5b6001600360008473ffffffffffffffffffffffffffffffffffffffff1673ffffffffffffffffffffffffffffffffffffffff16815260200190815260200160002060008282540192505081905550816002600083815260200190815260200160002060006101000a81548173ffffffffffffffffffffffffffffffffffffffff021916908373ffffffffffffffffffffffffffffffffffffffff160217905550808273ffffffffffffffffffffffffffffffffffffffff16600073ffffffffffffffffffffffffffffffffffffffff167fddf252ad1be2c89b69c2b068fc378daa952ba7f163c4a11628f55a4df523b3ef60405160405180910390a46110936000838360016113e4565b5050565b6110a96110a2610d4d565b83836113ea565b5050565b606060405180602001604052806000815250905090565b60606110cf82610beb565b60006110d96110ad565b905060008151116110f95760405180602001604052806000815250611124565b8061110384611556565b604051602001611114929190612413565b6040516020818303038152906040525b915050919050565b60007f01ffc9a7000000000000000000000000000000000000000000000000000000007bffffffffffffffffffffffffffffffffffffffffffffffffffffffff1916827bffffffffffffffffffffffffffffffffffffffffffffffffffffffff1916149050919050565b60008073ffffffffffffffffffffffffffffffffffffffff166111b883610e3d565b73ffffffffffffffffffffffffffffffffffffffff1614159050919050565b816004600083815260200190815260200160002060006101000a81548173ffffffffffffffffffffffffffffffffffffffff021916908373ffffffffffffffffffffffffffffffffffffffff160217905550808273ffffffffffffffffffffffffffffffffffffffff1661124a8361068f565b73ffffffffffffffffffffffffffffffffffffffff167f8c5be1e5ebec7d5bd14f71427d1e84f3dd0314c0f7b2291e5b200ac8c7c3b92560405160405180910390a45050565b600061129b8261068f565b90506112ab8160008460016113de565b6112b48261068f565b90506004600083815260200190815260200160002060006101000a81549073ffffffffffffffffffffffffffffffffffffffff02191690556001600360008373ffffffffffffffffffffffffffffffffffffffff1673ffffffffffffffffffffffffffffffffffffffff168152602001908152602001600020600082825403925050819055506002600083815260200190815260200160002060006101000a81549073ffffffffffffffffffffffffffffffffffffffff021916905581600073ffffffffffffffffffffffffffffffffffffffff168273ffffffffffffffffffffffffffffffffffffffff167fddf252ad1be2c89b69c2b068fc378daa952ba7f163c4a11628f55a4df523b3ef60405160405180910390a46113da8160008460016113e4565b5050565b50505050565b50505050565b8173ffffffffffffffffffffffffffffffffffffffff168373ffffffffffffffffffffffffffffffffffffffff1603611458576040517f08c379a000000000000000000000000000000000000000000000000000000000815260040161144f9061267f565b60405180910390fd5b80600560008573ffffffffffffffffffffffffffffffffffffffff1673ffffffffffffffffffffffffffffffffffffffff16815260200190815260200160002060008473ffffffffffffffffffffffffffffffffffffffff1673ffffffffffffffffffffffffffffffffffffffff16815260200190815260200160002060006101000a81548160ff0219169083151502179055508173ffffffffffffffffffffffffffffffffffffffff168373ffffffffffffffffffffffffffffffffffffffff167f17307eab39ab6107e8899845ad3d59bd9653f200f220920489ca2b5937696c31836040516115499190611888565b60405180910390a3505050565b60606000600161156584611624565b01905060008167ffffffffffffffff81111561158457611583611b0a565b5b6040519080825280601f01601f1916602001820160405280156115b65781602001600182028036833780820191505090505b509050600082602001820190505b600115611619578080600190039150507f3031323334353637383961626364656600000000000000000000000000000000600a86061a8153600a858161160d5761160c61269f565b5b049450600085036115c4575b819350505050919050565b600080600090507a184f03e93ff9f4daa797ed6e38ed64bf6a1f0100000000000000008310611682577a184f03e93ff9f4daa797ed6e38ed64bf6a1f01000000000000000083816116785761167761269f565b5b0492506040810190505b6d04ee2d6d415b85acef810000000083106116bf576d04ee2d6d415b85acef810000000083816116b5576116b461269f565b5b0492506020810190505b662386f26fc1000083106116ee57662386f26fc1000083816116e4576116e361269f565b5b0492506010810190505b6305f5e1008310611717576305f5e100838161170d5761170c61269f565b5b0492506008810190505b612710831061173c5761271083816117325761173161269f565b5b0492506004810190505b6064831061175f57606483816117555761175461269f565b5b0492506002810190505b600a831061176e576001810190505b80915050919050565b50805461178390611ea7565b6000825580601f1061179557506117b4565b601f0160209004906000526020600020908101906117b391906117b7565b5b50565b5b808211156117d05760008160009055506001016117b8565b5090565b6000604051905090565b600080fd5b600080fd5b60007fffffffff0000000000000000000000000000000000000000000000000000000082169050919050565b61181d816117e8565b811461182857600080fd5b50565b60008135905061183a81611814565b92915050565b600060208284031215611856576118556117de565b5b60006118648482850161182b565b91505092915050565b60008115159050919050565b6118828161186d565b82525050565b600060208201905061189d6000830184611879565b92915050565b600081519050919050565b600082825260208201905092915050565b60005b838110156118dd5780820151818401526020810190506118c2565b60008484015250505050565b6000601f19601f8301169050919050565b6000611905826118a3565b61190f81856118ae565b935061191f8185602086016118bf565b611928816118e9565b840191505092915050565b6000602082019050818103600083015261194d81846118fa565b905092915050565b6000819050919050565b61196881611955565b811461197357600080fd5b50565b6000813590506119858161195f565b92915050565b6000602082840312156119a1576119a06117de565b5b60006119af84828501611976565b91505092915050565b600073ffffffffffffffffffffffffffffffffffffffff82169050919050565b60006119e3826119b8565b9050919050565b6119f3816119d8565b82525050565b6000602082019050611a0e60008301846119ea565b92915050565b611a1d816119d8565b8114611a2857600080fd5b50565b600081359050611a3a81611a14565b92915050565b60008060408385031215611a5757611a566117de565b5b6000611a6585828601611a2b565b9250506020611a7685828601611976565b9150509250929050565b600060208284031215611a9657611a956117de565b5b6000611aa484828501611a2b565b91505092915050565b600080600060608486031215611ac657611ac56117de565b5b6000611ad486828701611a2b565b9350506020611ae586828701611a2b565b9250506040611af686828701611976565b9150509250925092565b600080fd5b600080fd5b7f4e487b7100000000000000000000000000000000000000000000000000000000600052604160045260246000fd5b611b42826118e9565b810181811067ffffffffffffffff82111715611b6157611b60611b0a565b5b80604052505050565b6000611b746117d4565b9050611b808282611b39565b919050565b600067ffffffffffffffff821115611ba057611b9f611b0a565b5b611ba9826118e9565b9050602081019050919050565b82818337600083830152505050565b6000611bd8611bd384611b85565b611b6a565b905082815260208101848484011115611bf457611bf3611b05565b5b611bff848285611bb6565b509392505050565b600082601f830112611c1c57611c1b611b00565b5b8135611c2c848260208601611bc5565b91505092915050565b600060208284031215611c4b57611c4a6117de565b5b600082013567ffffffffffffffff811115611c6957611c686117e3565b5b611c7584828501611c07565b91505092915050565b611c8781611955565b82525050565b6000602082019050611ca26000830184611c7e565b92915050565b611cb18161186d565b8114611cbc57600080fd5b50565b600081359050611cce81611ca8565b92915050565b60008060408385031215611ceb57611cea6117de565b5b6000611cf985828601611a2b565b9250506020611d0a85828601611cbf565b9150509250929050565b600067ffffffffffffffff821115611d2f57611d2e611b0a565b5b611d38826118e9565b9050602081019050919050565b6000611d58611d5384611d14565b611b6a565b905082815260208101848484011115611d7457611d73611b05565b5b611d7f848285611bb6565b509392505050565b600082601f830112611d9c57611d9b611b00565b5b8135611dac848260208601611d45565b91505092915050565b60008060008060808587031215611dcf57611dce6117de565b5b6000611ddd87828801611a2b565b9450506020611dee87828801611a2b565b9350506040611dff87828801611976565b925050606085013567ffffffffffffffff811115611e2057611e1f6117e3565b5b611e2c87828801611d87565b91505092959194509250565b60008060408385031215611e4f57611e4e6117de565b5b6000611e5d85828601611a2b565b9250506020611e6e85828601611a2b565b9150509250929050565b7f4e487b7100000000000000000000000000000000000000000000000000000000600052602260045260246000fd5b60006002820490506001821680611ebf57607f821691505b602082108103611ed257611ed1611e78565b5b50919050565b7f746f6b656e20697320534f554c20424f554e4400000000000000000000000000600082015250565b6000611f0e6013836118ae565b9150611f1982611ed8565b602082019050919050565b60006020820190508181036000830152611f3d81611f01565b9050919050565b7f4e487b7100000000000000000000000000000000000000000000000000000000600052601160045260246000fd5b6000611f7e82611955565b91507fffffffffffffffffffffffffffffffffffffffffffffffffffffffffffffffff8203611fb057611faf611f44565b5b600182019050919050565b60008190508160005260206000209050919050565b60006020601f8301049050919050565b600082821b905092915050565b60006008830261201d7fffffffffffffffffffffffffffffffffffffffffffffffffffffffffffffffff82611fe0565b6120278683611fe0565b95508019841693508086168417925050509392505050565b6000819050919050565b600061206461205f61205a84611955565b61203f565b611955565b9050919050565b6000819050919050565b61207e83612049565b61209261208a8261206b565b848454611fed565b825550505050565b600090565b6120a761209a565b6120b2818484612075565b505050565b5b818110156120d6576120cb60008261209f565b6001810190506120b8565b5050565b601f82111561211b576120ec81611fbb565b6120f584611fd0565b81016020851015612104578190505b61211861211085611fd0565b8301826120b7565b50505b505050565b600082821c905092915050565b600061213e60001984600802612120565b1980831691505092915050565b6000612157838361212d565b9150826002028217905092915050565b612170826118a3565b67ffffffffffffffff81111561218957612188611b0a565b5b6121938254611ea7565b61219e8282856120da565b600060209050601f8311600181146121d157600084156121bf578287015190505b6121c9858261214b565b865550612231565b601f1984166121df86611fbb565b60005b82811015612207578489015182556001820191506020850194506020810190506121e2565b868310156122245784890151612220601f89168261212d565b8355505b6001600288020188555050505b505050505050565b7f43616c6c6572206973206e6f74206f776e6572206e6f7220617070726f766564600082015250565b600061226f6020836118ae565b915061227a82612239565b602082019050919050565b6000602082019050818103600083015261229e81612262565b9050919050565b7f4552433732313a20696e76616c696420746f6b656e2049440000000000000000600082015250565b60006122db6018836118ae565b91506122e6826122a5565b602082019050919050565b6000602082019050818103600083015261230a816122ce565b9050919050565b600061231c82611955565b915061232783611955565b925082820190508082111561233f5761233e611f44565b5b92915050565b7f4552433732313a2061646472657373207a65726f206973206e6f74206120766160008201527f6c6964206f776e65720000000000000000000000000000000000000000000000602082015250565b60006123a16029836118ae565b91506123ac82612345565b604082019050919050565b600060208201905081810360008301526123d081612394565b9050919050565b600081905092915050565b60006123ed826118a3565b6123f781856123d7565b93506124078185602086016118bf565b80840191505092915050565b600061241f82856123e2565b915061242b82846123e2565b91508190509392505050565b7f4552433732313a20617070726f76616c20746f2063757272656e74206f776e6560008201527f7200000000000000000000000000000000000000000000000000000000000000602082015250565b60006124936021836118ae565b915061249e82612437565b604082019050919050565b600060208201905081810360008301526124c281612486565b9050919050565b7f4552433732313a20617070726f76652063616c6c6572206973206e6f7420746f60008201527f6b656e206f776e6572206f7220617070726f76656420666f7220616c6c000000602082015250565b6000612525603d836118ae565b9150612530826124c9565b604082019050919050565b6000602082019050818103600083015261255481612518565b9050919050565b7f4552433732313a206d696e7420746f20746865207a65726f2061646472657373600082015250565b60006125916020836118ae565b915061259c8261255b565b602082019050919050565b600060208201905081810360008301526125c081612584565b9050919050565b7f4552433732313a20746f6b656e20616c7265616479206d696e74656400000000600082015250565b60006125fd601c836118ae565b9150612608826125c7565b602082019050919050565b6000602082019050818103600083015261262c816125f0565b9050919050565b7f4552433732313a20617070726f766520746f2063616c6c657200000000000000600082015250565b60006126696019836118ae565b915061267482612633565b602082019050919050565b600060208201905081810360008301526126988161265c565b9050919050565b7f4e487b7100000000000000000000000000000000000000000000000000000000600052601260045260246000fdfea26469706673582212209ed21847a9905805db87991d517d3468295485a47d6fbbb0caa4066e2fa5d2c264736f6c63430008130033",
  "immutableReferences": {},
  "source": "// SPDX-License-Identifier: UNLICENSED\r\npragma solidity ^0.8.19;\r\n\r\nimport \"@openzeppelin/contracts/token/ERC721/extensions/ERC721URIStorage.sol\";\r\nimport \"@openzeppelin/contracts/token/ERC721/IERC721.sol\";\r\nimport \"@openzeppelin/contracts/access/Ownable.sol\";\r\n\r\n\r\ncontract TierOne is ERC721URIStorage {\r\n    uint256 _currentTokenId;\r\n    string private _baseTokenURI;\r\n\r\n    event mintedTOne(address _address);\r\n\r\n    constructor(string memory baseTokenURI) ERC721(\"TierOne\", \"T1\") {\r\n        _baseTokenURI = baseTokenURI;\r\n        _currentTokenId = 1;\r\n    }\r\n    \r\n    function setBaseTokenURI(string memory baseTokenURI) public {\r\n        _baseTokenURI = baseTokenURI;\r\n    }\r\n\r\n    function mint(address _recipient) public returns (uint256 _sbtId){\r\n        _currentTokenId += 1;\r\n        uint256 newItemId = _currentTokenId;\r\n        _mint(_recipient, newItemId);\r\n        emit mintedTOne(_recipient);\r\n        return _currentTokenId;\r\n    }\r\n\r\n    function checkOwnership(address wallet) public view returns (bool) {\r\n        for (uint256 tokenId = 1; tokenId <= _currentTokenId; tokenId++) {\r\n            if (ownerOf(tokenId) == wallet) {\r\n                return true;\r\n            }\r\n        }\r\n        return false;\r\n    }\r\n\r\n    function burn(uint256 tokenId) public {\r\n        require(_isApprovedOrOwner(_msgSender(), tokenId), \"Caller is not owner nor approved\");\r\n        _burn(tokenId);\r\n    }\r\n\r\n    function approve(address to, uint256 tokenId) public virtual override(ERC721, IERC721) {\r\n        require(to == address(0), \"token is SOUL BOUND\");\r\n        super.approve(to, tokenId);\r\n    }\r\n\r\n    function setApprovalForAll(address operator, bool approved) public virtual override(ERC721, IERC721) {\r\n        require(!approved, \"token is SOUL BOUND\");\r\n        super.setApprovalForAll(operator, approved);\r\n    }\r\n\r\n    function transferFrom(address from, address to, uint256 tokenId) public virtual override(ERC721, IERC721) {\r\n        require(false, \"token is SOUL BOUND\");\r\n    }\r\n\r\n    function safeTransferFrom(address from, address to, uint256 tokenId, bytes memory _data) public virtual override(ERC721, IERC721) {\r\n        require(false, \"token is SOUL BOUND\");\r\n    }\r\n}",
  "sourcePath": "C:\\Users\\Alex\\Desktop\\GreenWalletV2\\contracts\\TierOne.sol",
  "compiler": {
    "name": "solc",
    "version": "0.8.19+commit.7dd6d404.Emscripten.clang"
  },
  "schemaVersion": "3.4.16",
  "updatedAt": "2024-09-28T16:41:54.837Z",
  "networkType": "ethereum",
  "devdoc": {
    "events": {
      "Approval(address,address,uint256)": {
        "details": "Emitted when `owner` enables `approved` to manage the `tokenId` token."
      },
      "ApprovalForAll(address,address,bool)": {
        "details": "Emitted when `owner` enables or disables (`approved`) `operator` to manage all of its assets."
      },
      "BatchMetadataUpdate(uint256,uint256)": {
        "details": "This event emits when the metadata of a range of tokens is changed. So that the third-party platforms such as NFT market could timely update the images and related attributes of the NFTs."
      },
      "MetadataUpdate(uint256)": {
        "details": "This event emits when the metadata of a token is changed. So that the third-party platforms such as NFT market could timely update the images and related attributes of the NFT."
      },
      "Transfer(address,address,uint256)": {
        "details": "Emitted when `tokenId` token is transferred from `from` to `to`."
      }
    },
    "kind": "dev",
    "methods": {
      "balanceOf(address)": {
        "details": "See {IERC721-balanceOf}."
      },
      "getApproved(uint256)": {
        "details": "See {IERC721-getApproved}."
      },
      "isApprovedForAll(address,address)": {
        "details": "See {IERC721-isApprovedForAll}."
      },
      "name()": {
        "details": "See {IERC721Metadata-name}."
      },
      "ownerOf(uint256)": {
        "details": "See {IERC721-ownerOf}."
      },
      "safeTransferFrom(address,address,uint256)": {
        "details": "See {IERC721-safeTransferFrom}."
      },
      "supportsInterface(bytes4)": {
        "details": "See {IERC165-supportsInterface}"
      },
      "symbol()": {
        "details": "See {IERC721Metadata-symbol}."
      },
      "tokenURI(uint256)": {
        "details": "See {IERC721Metadata-tokenURI}."
      }
    },
    "version": 1
  },
  "userdoc": {
    "kind": "user",
    "methods": {},
    "version": 1
  }
}