{
  "contractName": "TierRegistry",
  "abi": [
    {
      "inputs": [
        {
          "internalType": "address",
          "name": "initialOwner",
          "type": "address"
        }
      ],
      "stateMutability": "nonpayable",
      "type": "constructor"
    },
    {
      "anonymous": false,
      "inputs": [
        {
          "indexed": true,
          "internalType": "address",
          "name": "previousOwner",
          "type": "address"
        },
        {
          "indexed": true,
          "internalType": "address",
          "name": "newOwner",
          "type": "address"
        }
      ],
      "name": "OwnershipTransferred",
      "type": "event"
    },
    {
      "inputs": [],
      "name": "owner",
      "outputs": [
        {
          "internalType": "address",
          "name": "",
          "type": "address"
        }
      ],
      "stateMutability": "view",
      "type": "function",
      "constant": true
    },
    {
      "inputs": [],
      "name": "renounceOwnership",
      "outputs": [],
      "stateMutability": "nonpayable",
      "type": "function"
    },
    {
      "inputs": [
        {
          "internalType": "uint256",
          "name": "",
          "type": "uint256"
        }
      ],
      "name": "tiers",
      "outputs": [
        {
          "internalType": "string",
          "name": "",
          "type": "string"
        }
      ],
      "stateMutability": "view",
      "type": "function",
      "constant": true
    },
    {
      "inputs": [
        {
          "internalType": "address",
          "name": "newOwner",
          "type": "address"
        }
      ],
      "name": "transferOwnership",
      "outputs": [],
      "stateMutability": "nonpayable",
      "type": "function"
    },
    {
      "inputs": [
        {
          "internalType": "address",
          "name": "_address",
          "type": "address"
        }
      ],
      "name": "setIMintAddress",
      "outputs": [],
      "stateMutability": "nonpayable",
      "type": "function"
    },
    {
      "inputs": [
        {
          "internalType": "string",
          "name": "_tier",
          "type": "string"
        },
        {
          "internalType": "int256",
          "name": "_tierScoreRequirement",
          "type": "int256"
        },
        {
          "internalType": "address",
          "name": "_tierAddress",
          "type": "address"
        }
      ],
      "name": "addTier",
      "outputs": [],
      "stateMutability": "nonpayable",
      "type": "function"
    },
    {
      "inputs": [
        {
          "internalType": "string",
          "name": "_tier",
          "type": "string"
        }
      ],
      "name": "removeTier",
      "outputs": [],
      "stateMutability": "nonpayable",
      "type": "function"
    },
    {
      "inputs": [],
      "name": "getTiers",
      "outputs": [
        {
          "internalType": "string[]",
          "name": "_tiers",
          "type": "string[]"
        }
      ],
      "stateMutability": "view",
      "type": "function",
      "constant": true
    }
  ],
  "bytecode": "0x60806040523480156200001157600080fd5b5060405162001e7438038062001e74833981810160405281019062000037919062000194565b620000576200004b6200005e60201b60201c565b6200006660201b60201c565b50620001c6565b600033905090565b60008060009054906101000a900473ffffffffffffffffffffffffffffffffffffffff169050816000806101000a81548173ffffffffffffffffffffffffffffffffffffffff021916908373ffffffffffffffffffffffffffffffffffffffff1602179055508173ffffffffffffffffffffffffffffffffffffffff168173ffffffffffffffffffffffffffffffffffffffff167f8be0079c531659141344cd1fd0a4f28419497f9722a3daafe3b4186f6b6457e060405160405180910390a35050565b600080fd5b600073ffffffffffffffffffffffffffffffffffffffff82169050919050565b60006200015c826200012f565b9050919050565b6200016e816200014f565b81146200017a57600080fd5b50565b6000815190506200018e8162000163565b92915050565b600060208284031215620001ad57620001ac6200012a565b5b6000620001bd848285016200017d565b91505092915050565b611c9e80620001d66000396000f3fe608060405234801561001057600080fd5b50600436106100885760003560e01c80638da5cb5b1161005b5780638da5cb5b146100ff578063de1705701461011d578063f2d049b61461013b578063f2fde38b1461015757610088565b8063039af9eb1461008d57806312a5ee98146100bd578063715018a6146100d95780637852134b146100e3575b600080fd5b6100a760048036038101906100a29190610d9d565b610173565b6040516100b49190610e5a565b60405180910390f35b6100d760048036038101906100d29190610eda565b61021f565b005b6100e1610263565b005b6100fd60048036038101906100f89190611072565b610277565b005b610107610583565b60405161011491906110f0565b60405180910390f35b6101256105ac565b6040516101329190611217565b60405180910390f35b61015560048036038101906101509190611239565b610685565b005b610171600480360381019061016c9190610eda565b6108eb565b005b6002818154811061018357600080fd5b90600052602060002001600091509050805461019e906112b1565b80601f01602080910402602001604051908101604052809291908181526020018280546101ca906112b1565b80156102175780601f106101ec57610100808354040283529160200191610217565b820191906000526020600020905b8154815290600101906020018083116101fa57829003601f168201915b505050505081565b80600160006101000a81548173ffffffffffffffffffffffffffffffffffffffff021916908373ffffffffffffffffffffffffffffffffffffffff16021790555050565b61026b61096e565b61027560006109ec565b565b61027f61096e565b610293836002610ab090919063ffffffff16565b156102d3576040517f08c379a00000000000000000000000000000000000000000000000000000000081526004016102ca9061132e565b60405180910390fd5b60028390806001815401808255809150506001900390600052602060002001600090919091909150908161030791906114fa565b50816003846040516103199190611608565b9081526020016040518091039020819055508060048460405161033c9190611608565b908152602001604051809103902060006101000a81548173ffffffffffffffffffffffffffffffffffffffff021916908373ffffffffffffffffffffffffffffffffffffffff16021790555060005b600160009054906101000a900473ffffffffffffffffffffffffffffffffffffffff1673ffffffffffffffffffffffffffffffffffffffff1663a39fac126040518163ffffffff1660e01b8152600401600060405180830381865afa1580156103f8573d6000803e3d6000fd5b505050506040513d6000823e3d601f19601f8201168201806040525081019061042191906116fc565b5181101561057d57600160009054906101000a900473ffffffffffffffffffffffffffffffffffffffff1673ffffffffffffffffffffffffffffffffffffffff166360615a24600160009054906101000a900473ffffffffffffffffffffffffffffffffffffffff1673ffffffffffffffffffffffffffffffffffffffff1663a39fac126040518163ffffffff1660e01b8152600401600060405180830381865afa1580156104d4573d6000803e3d6000fd5b505050506040513d6000823e3d601f19601f820116820180604052508101906104fd91906116fc565b838151811061050f5761050e611745565b5b60200260200101518660006040518463ffffffff1660e01b8152600401610538939291906117af565b600060405180830381600087803b15801561055257600080fd5b505af1158015610566573d6000803e3d6000fd5b5050505080806105759061181c565b91505061038b565b50505050565b60008060009054906101000a900473ffffffffffffffffffffffffffffffffffffffff16905090565b60606002805480602002602001604051908101604052809291908181526020016000905b8282101561067c5783829060005260206000200180546105ef906112b1565b80601f016020809104026020016040519081016040528092919081815260200182805461061b906112b1565b80156106685780601f1061063d57610100808354040283529160200191610668565b820191906000526020600020905b81548152906001019060200180831161064b57829003601f168201915b5050505050815260200190600101906105d0565b50505050905090565b61068d61096e565b6106a1816002610ab090919063ffffffff16565b6106e0576040517f08c379a00000000000000000000000000000000000000000000000000000000081526004016106d7906118d6565b60405180910390fd5b6106f4816002610b5c90919063ffffffff16565b5060005b600160009054906101000a900473ffffffffffffffffffffffffffffffffffffffff1673ffffffffffffffffffffffffffffffffffffffff1663a39fac126040518163ffffffff1660e01b8152600401600060405180830381865afa158015610765573d6000803e3d6000fd5b505050506040513d6000823e3d601f19601f8201168201806040525081019061078e91906116fc565b518110156108e757600160009054906101000a900473ffffffffffffffffffffffffffffffffffffffff1673ffffffffffffffffffffffffffffffffffffffff166354095468600160009054906101000a900473ffffffffffffffffffffffffffffffffffffffff1673ffffffffffffffffffffffffffffffffffffffff1663a39fac126040518163ffffffff1660e01b8152600401600060405180830381865afa158015610841573d6000803e3d6000fd5b505050506040513d6000823e3d601f19601f8201168201806040525081019061086a91906116fc565b838151811061087c5761087b611745565b5b6020026020010151846040518363ffffffff1660e01b81526004016108a29291906118f6565b600060405180830381600087803b1580156108bc57600080fd5b505af11580156108d0573d6000803e3d6000fd5b5050505080806108df9061181c565b9150506106f8565b5050565b6108f361096e565b600073ffffffffffffffffffffffffffffffffffffffff168173ffffffffffffffffffffffffffffffffffffffff1603610962576040517f08c379a000000000000000000000000000000000000000000000000000000000815260040161095990611998565b60405180910390fd5b61096b816109ec565b50565b610976610c40565b73ffffffffffffffffffffffffffffffffffffffff16610994610583565b73ffffffffffffffffffffffffffffffffffffffff16146109ea576040517f08c379a00000000000000000000000000000000000000000000000000000000081526004016109e190611a04565b60405180910390fd5b565b60008060009054906101000a900473ffffffffffffffffffffffffffffffffffffffff169050816000806101000a81548173ffffffffffffffffffffffffffffffffffffffff021916908373ffffffffffffffffffffffffffffffffffffffff1602179055508173ffffffffffffffffffffffffffffffffffffffff168173ffffffffffffffffffffffffffffffffffffffff167f8be0079c531659141344cd1fd0a4f28419497f9722a3daafe3b4186f6b6457e060405160405180910390a35050565b600080600090505b8380549050811015610b505782604051602001610ad59190611608565b60405160208183030381529060405280519060200120848281548110610afe57610afd611745565b5b90600052602060002001604051602001610b189190611aa7565b6040516020818303038152906040528051906020012003610b3d576001915050610b56565b8080610b489061181c565b915050610ab8565b50600090505b92915050565b600080610b698484610c48565b905083805490508103610b80576000915050610c3a565b60008190505b60018580549050610b979190611abe565b811015610c045784600182610bac9190611af2565b81548110610bbd57610bbc611745565b5b90600052602060002001858281548110610bda57610bd9611745565b5b906000526020600020019081610bf09190611b51565b508080610bfc9061181c565b915050610b86565b5083805480610c1657610c15611c39565b5b600190038181906000526020600020016000610c329190610cf6565b905560019150505b92915050565b600033905090565b600080600090505b8380549050811015610ce75782604051602001610c6d9190611608565b60405160208183030381529060405280519060200120848281548110610c9657610c95611745565b5b90600052602060002001604051602001610cb09190611aa7565b6040516020818303038152906040528051906020012003610cd45780915050610cf0565b8080610cdf9061181c565b915050610c50565b50828054905090505b92915050565b508054610d02906112b1565b6000825580601f10610d145750610d33565b601f016020900490600052602060002090810190610d329190610d36565b5b50565b5b80821115610d4f576000816000905550600101610d37565b5090565b6000604051905090565b600080fd5b600080fd5b6000819050919050565b610d7a81610d67565b8114610d8557600080fd5b50565b600081359050610d9781610d71565b92915050565b600060208284031215610db357610db2610d5d565b5b6000610dc184828501610d88565b91505092915050565b600081519050919050565b600082825260208201905092915050565b60005b83811015610e04578082015181840152602081019050610de9565b60008484015250505050565b6000601f19601f8301169050919050565b6000610e2c82610dca565b610e368185610dd5565b9350610e46818560208601610de6565b610e4f81610e10565b840191505092915050565b60006020820190508181036000830152610e748184610e21565b905092915050565b600073ffffffffffffffffffffffffffffffffffffffff82169050919050565b6000610ea782610e7c565b9050919050565b610eb781610e9c565b8114610ec257600080fd5b50565b600081359050610ed481610eae565b92915050565b600060208284031215610ef057610eef610d5d565b5b6000610efe84828501610ec5565b91505092915050565b600080fd5b600080fd5b7f4e487b7100000000000000000000000000000000000000000000000000000000600052604160045260246000fd5b610f4982610e10565b810181811067ffffffffffffffff82111715610f6857610f67610f11565b5b80604052505050565b6000610f7b610d53565b9050610f878282610f40565b919050565b600067ffffffffffffffff821115610fa757610fa6610f11565b5b610fb082610e10565b9050602081019050919050565b82818337600083830152505050565b6000610fdf610fda84610f8c565b610f71565b905082815260208101848484011115610ffb57610ffa610f0c565b5b611006848285610fbd565b509392505050565b600082601f83011261102357611022610f07565b5b8135611033848260208601610fcc565b91505092915050565b6000819050919050565b61104f8161103c565b811461105a57600080fd5b50565b60008135905061106c81611046565b92915050565b60008060006060848603121561108b5761108a610d5d565b5b600084013567ffffffffffffffff8111156110a9576110a8610d62565b5b6110b58682870161100e565b93505060206110c68682870161105d565b92505060406110d786828701610ec5565b9150509250925092565b6110ea81610e9c565b82525050565b600060208201905061110560008301846110e1565b92915050565b600081519050919050565b600082825260208201905092915050565b6000819050602082019050919050565b600082825260208201905092915050565b600061115382610dca565b61115d8185611137565b935061116d818560208601610de6565b61117681610e10565b840191505092915050565b600061118d8383611148565b905092915050565b6000602082019050919050565b60006111ad8261110b565b6111b78185611116565b9350836020820285016111c985611127565b8060005b8581101561120557848403895281516111e68582611181565b94506111f183611195565b925060208a019950506001810190506111cd565b50829750879550505050505092915050565b6000602082019050818103600083015261123181846111a2565b905092915050565b60006020828403121561124f5761124e610d5d565b5b600082013567ffffffffffffffff81111561126d5761126c610d62565b5b6112798482850161100e565b91505092915050565b7f4e487b7100000000000000000000000000000000000000000000000000000000600052602260045260246000fd5b600060028204905060018216806112c957607f821691505b6020821081036112dc576112db611282565b5b50919050565b7f5469657220616c72656164792065786973747300000000000000000000000000600082015250565b6000611318601383610dd5565b9150611323826112e2565b602082019050919050565b600060208201905081810360008301526113478161130b565b9050919050565b60008190508160005260206000209050919050565b60006020601f8301049050919050565b600082821b905092915050565b6000600883026113b07fffffffffffffffffffffffffffffffffffffffffffffffffffffffffffffffff82611373565b6113ba8683611373565b95508019841693508086168417925050509392505050565b6000819050919050565b60006113f76113f26113ed84610d67565b6113d2565b610d67565b9050919050565b6000819050919050565b611411836113dc565b61142561141d826113fe565b848454611380565b825550505050565b600090565b61143a61142d565b611445818484611408565b505050565b5b818110156114695761145e600082611432565b60018101905061144b565b5050565b601f8211156114ae5761147f8161134e565b61148884611363565b81016020851015611497578190505b6114ab6114a385611363565b83018261144a565b50505b505050565b600082821c905092915050565b60006114d1600019846008026114b3565b1980831691505092915050565b60006114ea83836114c0565b9150826002028217905092915050565b61150382610dca565b67ffffffffffffffff81111561151c5761151b610f11565b5b61152682546112b1565b61153182828561146d565b600060209050601f8311600181146115645760008415611552578287015190505b61155c85826114de565b8655506115c4565b601f1984166115728661134e565b60005b8281101561159a57848901518255600182019150602085019450602081019050611575565b868310156115b757848901516115b3601f8916826114c0565b8355505b6001600288020188555050505b505050505050565b600081905092915050565b60006115e282610dca565b6115ec81856115cc565b93506115fc818560208601610de6565b80840191505092915050565b600061161482846115d7565b915081905092915050565b600067ffffffffffffffff82111561163a57611639610f11565b5b602082029050602081019050919050565b600080fd5b60008151905061165f81610eae565b92915050565b60006116786116738461161f565b610f71565b9050808382526020820190506020840283018581111561169b5761169a61164b565b5b835b818110156116c457806116b08882611650565b84526020840193505060208101905061169d565b5050509392505050565b600082601f8301126116e3576116e2610f07565b5b81516116f3848260208601611665565b91505092915050565b60006020828403121561171257611711610d5d565b5b600082015167ffffffffffffffff8111156117305761172f610d62565b5b61173c848285016116ce565b91505092915050565b7f4e487b7100000000000000000000000000000000000000000000000000000000600052603260045260246000fd5b6000819050919050565b600061179961179461178f84611774565b6113d2565b61103c565b9050919050565b6117a98161177e565b82525050565b60006060820190506117c460008301866110e1565b81810360208301526117d68185610e21565b90506117e560408301846117a0565b949350505050565b7f4e487b7100000000000000000000000000000000000000000000000000000000600052601160045260246000fd5b600061182782610d67565b91507fffffffffffffffffffffffffffffffffffffffffffffffffffffffffffffffff8203611859576118586117ed565b5b600182019050919050565b7f5469657220646f65736e27742065786973742c2063616e6e6f7420626520726560008201527f6d6f766564000000000000000000000000000000000000000000000000000000602082015250565b60006118c0602583610dd5565b91506118cb82611864565b604082019050919050565b600060208201905081810360008301526118ef816118b3565b9050919050565b600060408201905061190b60008301856110e1565b818103602083015261191d8184610e21565b90509392505050565b7f4f776e61626c653a206e6577206f776e657220697320746865207a65726f206160008201527f6464726573730000000000000000000000000000000000000000000000000000602082015250565b6000611982602683610dd5565b915061198d82611926565b604082019050919050565b600060208201905081810360008301526119b181611975565b9050919050565b7f4f776e61626c653a2063616c6c6572206973206e6f7420746865206f776e6572600082015250565b60006119ee602083610dd5565b91506119f9826119b8565b602082019050919050565b60006020820190508181036000830152611a1d816119e1565b9050919050565b60008154611a31816112b1565b611a3b81866115cc565b94506001821660008114611a565760018114611a6b57611a9e565b60ff1983168652811515820286019350611a9e565b611a748561134e565b60005b83811015611a9657815481890152600182019150602081019050611a77565b838801955050505b50505092915050565b6000611ab38284611a24565b915081905092915050565b6000611ac982610d67565b9150611ad483610d67565b9250828203905081811115611aec57611aeb6117ed565b5b92915050565b6000611afd82610d67565b9150611b0883610d67565b9250828201905080821115611b2057611b1f6117ed565b5b92915050565b600081549050611b35816112b1565b9050919050565b60008190508160005260206000209050919050565b818103611b5f575050611c37565b611b6882611b26565b67ffffffffffffffff811115611b8157611b80610f11565b5b611b8b82546112b1565b611b9682828561146d565b6000601f831160018114611bc55760008415611bb3578287015490505b611bbd85826114de565b865550611c30565b601f198416611bd387611b3c565b9650611bde8661134e565b60005b82811015611c0657848901548255600182019150600185019450602081019050611be1565b86831015611c235784890154611c1f601f8916826114c0565b8355505b6001600288020188555050505b5050505050505b565b7f4e487b7100000000000000000000000000000000000000000000000000000000600052603160045260246000fdfea264697066735822122065181287147c76283f56341a525a5e2537d79d308ac59df0c4c2202321fbc15364736f6c63430008130033",
  "immutableReferences": {},
  "source": "// SPDX-License-Identifier: UNLICENSED\r\npragma solidity ^0.8.19;\r\n\r\nimport \"@openzeppelin/contracts/access/Ownable.sol\";\r\nimport \"./libraries/StringArrayUtils.sol\";\r\n\r\ninterface IMintingRegistry {\r\n    function getAddresses() external view returns (address[] memory);\r\n    function updateMintedRegistryForWallets(address _addr, string memory tier, int _sbtId) external;\r\n    function deleteMintedRegistryForWallets(address _addr, string memory tier) external;\r\n}\r\n\r\ncontract TierRegistry is Ownable {\r\n    IMintingRegistry IMint;\r\n    using StringArrayUtils for string[];\r\n    string[] public tiers;\r\n    mapping(string => int) scoreRequirements;\r\n    mapping(string => address) tierSBTAddresses;\r\n\r\n    constructor(address initialOwner) Ownable(){}\r\n    \r\n    function setIMintAddress(address _address) external{\r\n        IMint = IMintingRegistry(_address);\r\n    }\r\n\r\n    function addTier(string memory _tier, int _tierScoreRequirement, address _tierAddress) public onlyOwner() {\r\n        require(!tiers.contains(_tier), \"Tier already exists\");\r\n        tiers.push(_tier);\r\n        scoreRequirements[_tier] = _tierScoreRequirement;\r\n        tierSBTAddresses[_tier] = _tierAddress;\r\n        for (uint256 i = 0; i < IMint.getAddresses().length; i++) {\r\n            IMint.updateMintedRegistryForWallets(IMint.getAddresses()[i], _tier, 0);\r\n        }\r\n    }\r\n    \r\n    function removeTier(string memory _tier) public onlyOwner() {\r\n        require(tiers.contains(_tier), \"Tier doesn't exist, cannot be removed\");\r\n        tiers.remove(_tier);\r\n        for (uint i = 0; i < IMint.getAddresses().length; i++) { \r\n            // if(mintedRegistryForWallets[addresses[i]][_tier] == true){\r\n            //     burn the SBT \r\n            // }\r\n            IMint.deleteMintedRegistryForWallets(IMint.getAddresses()[i], _tier);\r\n        }\r\n    }\r\n    function getTiers() public view returns (string[] memory _tiers) {\r\n        return tiers;\r\n    }\r\n}",
  "sourcePath": "C:\\Users\\Alex\\Desktop\\GreenWalletV2\\contracts\\TierRegistry.sol",
  "compiler": {
    "name": "solc",
    "version": "0.8.19+commit.7dd6d404.Emscripten.clang"
  },
  "schemaVersion": "3.4.16",
  "updatedAt": "2024-09-28T16:41:54.826Z",
  "networkType": "ethereum",
  "devdoc": {
    "kind": "dev",
    "methods": {
      "owner()": {
        "details": "Returns the address of the current owner."
      },
      "renounceOwnership()": {
        "details": "Leaves the contract without owner. It will not be possible to call `onlyOwner` functions. Can only be called by the current owner. NOTE: Renouncing ownership will leave the contract without an owner, thereby disabling any functionality that is only available to the owner."
      },
      "transferOwnership(address)": {
        "details": "Transfers ownership of the contract to a new account (`newOwner`). Can only be called by the current owner."
      }
    },
    "version": 1
  },
  "userdoc": {
    "kind": "user",
    "methods": {},
    "version": 1
  }
}