{
  "contractName": "TierTwo",
  "abi": [
    {
      "inputs": [
        {
          "internalType": "string",
          "name": "baseTokenURI",
          "type": "string"
        }
      ],
      "stateMutability": "nonpayable",
      "type": "constructor"
    },
    {
      "anonymous": false,
      "inputs": [
        {
          "indexed": true,
          "internalType": "address",
          "name": "owner",
          "type": "address"
        },
        {
          "indexed": true,
          "internalType": "address",
          "name": "approved",
          "type": "address"
        },
        {
          "indexed": true,
          "internalType": "uint256",
          "name": "tokenId",
          "type": "uint256"
        }
      ],
      "name": "Approval",
      "type": "event"
    },
    {
      "anonymous": false,
      "inputs": [
        {
          "indexed": true,
          "internalType": "address",
          "name": "owner",
          "type": "address"
        },
        {
          "indexed": true,
          "internalType": "address",
          "name": "operator",
          "type": "address"
        },
        {
          "indexed": false,
          "internalType": "bool",
          "name": "approved",
          "type": "bool"
        }
      ],
      "name": "ApprovalForAll",
      "type": "event"
    },
    {
      "anonymous": false,
      "inputs": [
        {
          "indexed": false,
          "internalType": "uint256",
          "name": "_fromTokenId",
          "type": "uint256"
        },
        {
          "indexed": false,
          "internalType": "uint256",
          "name": "_toTokenId",
          "type": "uint256"
        }
      ],
      "name": "BatchMetadataUpdate",
      "type": "event"
    },
    {
      "anonymous": false,
      "inputs": [
        {
          "indexed": false,
          "internalType": "uint256",
          "name": "_tokenId",
          "type": "uint256"
        }
      ],
      "name": "MetadataUpdate",
      "type": "event"
    },
    {
      "anonymous": false,
      "inputs": [
        {
          "indexed": true,
          "internalType": "address",
          "name": "from",
          "type": "address"
        },
        {
          "indexed": true,
          "internalType": "address",
          "name": "to",
          "type": "address"
        },
        {
          "indexed": true,
          "internalType": "uint256",
          "name": "tokenId",
          "type": "uint256"
        }
      ],
      "name": "Transfer",
      "type": "event"
    },
    {
      "anonymous": false,
      "inputs": [
        {
          "indexed": false,
          "internalType": "address",
          "name": "_address",
          "type": "address"
        }
      ],
      "name": "mintedTTwo",
      "type": "event"
    },
    {
      "inputs": [
        {
          "internalType": "address",
          "name": "owner",
          "type": "address"
        }
      ],
      "name": "balanceOf",
      "outputs": [
        {
          "internalType": "uint256",
          "name": "",
          "type": "uint256"
        }
      ],
      "stateMutability": "view",
      "type": "function",
      "constant": true
    },
    {
      "inputs": [
        {
          "internalType": "uint256",
          "name": "tokenId",
          "type": "uint256"
        }
      ],
      "name": "getApproved",
      "outputs": [
        {
          "internalType": "address",
          "name": "",
          "type": "address"
        }
      ],
      "stateMutability": "view",
      "type": "function",
      "constant": true
    },
    {
      "inputs": [
        {
          "internalType": "address",
          "name": "owner",
          "type": "address"
        },
        {
          "internalType": "address",
          "name": "operator",
          "type": "address"
        }
      ],
      "name": "isApprovedForAll",
      "outputs": [
        {
          "internalType": "bool",
          "name": "",
          "type": "bool"
        }
      ],
      "stateMutability": "view",
      "type": "function",
      "constant": true
    },
    {
      "inputs": [],
      "name": "name",
      "outputs": [
        {
          "internalType": "string",
          "name": "",
          "type": "string"
        }
      ],
      "stateMutability": "view",
      "type": "function",
      "constant": true
    },
    {
      "inputs": [
        {
          "internalType": "uint256",
          "name": "tokenId",
          "type": "uint256"
        }
      ],
      "name": "ownerOf",
      "outputs": [
        {
          "internalType": "address",
          "name": "",
          "type": "address"
        }
      ],
      "stateMutability": "view",
      "type": "function",
      "constant": true
    },
    {
      "inputs": [
        {
          "internalType": "bytes4",
          "name": "interfaceId",
          "type": "bytes4"
        }
      ],
      "name": "supportsInterface",
      "outputs": [
        {
          "internalType": "bool",
          "name": "",
          "type": "bool"
        }
      ],
      "stateMutability": "view",
      "type": "function",
      "constant": true
    },
    {
      "inputs": [],
      "name": "symbol",
      "outputs": [
        {
          "internalType": "string",
          "name": "",
          "type": "string"
        }
      ],
      "stateMutability": "view",
      "type": "function",
      "constant": true
    },
    {
      "inputs": [
        {
          "internalType": "uint256",
          "name": "tokenId",
          "type": "uint256"
        }
      ],
      "name": "tokenURI",
      "outputs": [
        {
          "internalType": "string",
          "name": "",
          "type": "string"
        }
      ],
      "stateMutability": "view",
      "type": "function",
      "constant": true
    },
    {
      "inputs": [
        {
          "internalType": "string",
          "name": "baseTokenURI",
          "type": "string"
        }
      ],
      "name": "setBaseTokenURI",
      "outputs": [],
      "stateMutability": "nonpayable",
      "type": "function"
    },
    {
      "inputs": [
        {
          "internalType": "address",
          "name": "_recipient",
          "type": "address"
        }
      ],
      "name": "mint",
      "outputs": [
        {
          "internalType": "uint256",
          "name": "_sbtId",
          "type": "uint256"
        }
      ],
      "stateMutability": "nonpayable",
      "type": "function"
    },
    {
      "inputs": [
        {
          "internalType": "address",
          "name": "wallet",
          "type": "address"
        }
      ],
      "name": "checkOwnership",
      "outputs": [
        {
          "internalType": "bool",
          "name": "",
          "type": "bool"
        }
      ],
      "stateMutability": "view",
      "type": "function",
      "constant": true
    },
    {
      "inputs": [
        {
          "internalType": "address",
          "name": "to",
          "type": "address"
        },
        {
          "internalType": "uint256",
          "name": "tokenId",
          "type": "uint256"
        }
      ],
      "name": "approve",
      "outputs": [],
      "stateMutability": "nonpayable",
      "type": "function"
    },
    {
      "inputs": [
        {
          "internalType": "address",
          "name": "operator",
          "type": "address"
        },
        {
          "internalType": "bool",
          "name": "approved",
          "type": "bool"
        }
      ],
      "name": "setApprovalForAll",
      "outputs": [],
      "stateMutability": "nonpayable",
      "type": "function"
    },
    {
      "inputs": [
        {
          "internalType": "address",
          "name": "from",
          "type": "address"
        },
        {
          "internalType": "address",
          "name": "to",
          "type": "address"
        },
        {
          "internalType": "uint256",
          "name": "tokenId",
          "type": "uint256"
        }
      ],
      "name": "transferFrom",
      "outputs": [],
      "stateMutability": "nonpayable",
      "type": "function"
    },
    {
      "inputs": [
        {
          "internalType": "address",
          "name": "from",
          "type": "address"
        },
        {
          "internalType": "address",
          "name": "to",
          "type": "address"
        },
        {
          "internalType": "uint256",
          "name": "tokenId",
          "type": "uint256"
        }
      ],
      "name": "safeTransferFrom",
      "outputs": [],
      "stateMutability": "nonpayable",
      "type": "function"
    },
    {
      "inputs": [
        {
          "internalType": "address",
          "name": "from",
          "type": "address"
        },
        {
          "internalType": "address",
          "name": "to",
          "type": "address"
        },
        {
          "internalType": "uint256",
          "name": "tokenId",
          "type": "uint256"
        },
        {
          "internalType": "bytes",
          "name": "_data",
          "type": "bytes"
        }
      ],
      "name": "safeTransferFrom",
      "outputs": [],
      "stateMutability": "nonpayable",
      "type": "function"
    }
  ],
  "bytecode": "0x60806040523480156200001157600080fd5b50604051620029923803806200299283398181016040528101906200003791906200027d565b6040518060400160405280600781526020017f5469657254776f000000000000000000000000000000000000000000000000008152506040518060400160405280600281526020017f54320000000000000000000000000000000000000000000000000000000000008152508160009081620000b4919062000519565b508060019081620000c6919062000519565b5050508060089081620000da919062000519565b5060016007819055505062000600565b6000604051905090565b600080fd5b600080fd5b600080fd5b600080fd5b6000601f19601f8301169050919050565b7f4e487b7100000000000000000000000000000000000000000000000000000000600052604160045260246000fd5b620001538262000108565b810181811067ffffffffffffffff8211171562000175576200017462000119565b5b80604052505050565b60006200018a620000ea565b905062000198828262000148565b919050565b600067ffffffffffffffff821115620001bb57620001ba62000119565b5b620001c68262000108565b9050602081019050919050565b60005b83811015620001f3578082015181840152602081019050620001d6565b60008484015250505050565b60006200021662000210846200019d565b6200017e565b90508281526020810184848401111562000235576200023462000103565b5b62000242848285620001d3565b509392505050565b600082601f830112620002625762000261620000fe565b5b815162000274848260208601620001ff565b91505092915050565b600060208284031215620002965762000295620000f4565b5b600082015167ffffffffffffffff811115620002b757620002b6620000f9565b5b620002c5848285016200024a565b91505092915050565b600081519050919050565b7f4e487b7100000000000000000000000000000000000000000000000000000000600052602260045260246000fd5b600060028204905060018216806200032157607f821691505b602082108103620003375762000336620002d9565b5b50919050565b60008190508160005260206000209050919050565b60006020601f8301049050919050565b600082821b905092915050565b600060088302620003a17fffffffffffffffffffffffffffffffffffffffffffffffffffffffffffffffff8262000362565b620003ad868362000362565b95508019841693508086168417925050509392505050565b6000819050919050565b6000819050919050565b6000620003fa620003f4620003ee84620003c5565b620003cf565b620003c5565b9050919050565b6000819050919050565b6200041683620003d9565b6200042e620004258262000401565b8484546200036f565b825550505050565b600090565b6200044562000436565b620004528184846200040b565b505050565b5b818110156200047a576200046e6000826200043b565b60018101905062000458565b5050565b601f821115620004c95762000493816200033d565b6200049e8462000352565b81016020851015620004ae578190505b620004c6620004bd8562000352565b83018262000457565b50505b505050565b600082821c905092915050565b6000620004ee60001984600802620004ce565b1980831691505092915050565b6000620005098383620004db565b9150826002028217905092915050565b6200052482620002ce565b67ffffffffffffffff81111562000540576200053f62000119565b5b6200054c825462000308565b620005598282856200047e565b600060209050601f8311600181146200059157600084156200057c578287015190505b620005888582620004fb565b865550620005f8565b601f198416620005a1866200033d565b60005b82811015620005cb57848901518255600182019150602085019450602081019050620005a4565b86831015620005eb5784890151620005e7601f891682620004db565b8355505b6001600288020188555050505b505050505050565b61238280620006106000396000f3fe608060405234801561001057600080fd5b50600436106101005760003560e01c80636352211e11610097578063a22cb46511610066578063a22cb465146102d1578063b88d4fde146102ed578063c87b56dd14610309578063e985e9c51461033957610100565b80636352211e146102235780636a6278421461025357806370a082311461028357806395d89b41146102b357610100565b80630c8b234e116100d35780630c8b234e1461019f57806323b872dd146101cf57806330176e13146101eb57806342842e0e1461020757610100565b806301ffc9a71461010557806306fdde0314610135578063081812fc14610153578063095ea7b314610183575b600080fd5b61011f600480360381019061011a919061152a565b610369565b60405161012c9190611572565b60405180910390f35b61013d6103ca565b60405161014a919061161d565b60405180910390f35b61016d60048036038101906101689190611675565b61045c565b60405161017a91906116e3565b60405180910390f35b61019d6004803603810190610198919061172a565b6104a2565b005b6101b960048036038101906101b4919061176a565b61051f565b6040516101c69190611572565b60405180910390f35b6101e960048036038101906101e49190611797565b610593565b005b6102056004803603810190610200919061191f565b6105d9565b005b610221600480360381019061021c9190611797565b6105ec565b005b61023d60048036038101906102389190611675565b61060c565b60405161024a91906116e3565b60405180910390f35b61026d6004803603810190610268919061176a565b610692565b60405161027a9190611977565b60405180910390f35b61029d6004803603810190610298919061176a565b610701565b6040516102aa9190611977565b60405180910390f35b6102bb6107b8565b6040516102c8919061161d565b60405180910390f35b6102eb60048036038101906102e691906119be565b61084a565b005b61030760048036038101906103029190611a9f565b610899565b005b610323600480360381019061031e9190611675565b6108e0565b604051610330919061161d565b60405180910390f35b610353600480360381019061034e9190611b22565b6109f2565b6040516103609190611572565b60405180910390f35b6000634906490660e01b7bffffffffffffffffffffffffffffffffffffffffffffffffffffffff1916827bffffffffffffffffffffffffffffffffffffffffffffffffffffffff191614806103c357506103c282610a86565b5b9050919050565b6060600080546103d990611b91565b80601f016020809104026020016040519081016040528092919081815260200182805461040590611b91565b80156104525780601f1061042757610100808354040283529160200191610452565b820191906000526020600020905b81548152906001019060200180831161043557829003601f168201915b5050505050905090565b600061046782610b68565b6004600083815260200190815260200160002060009054906101000a900473ffffffffffffffffffffffffffffffffffffffff169050919050565b600073ffffffffffffffffffffffffffffffffffffffff168273ffffffffffffffffffffffffffffffffffffffff1614610511576040517f08c379a000000000000000000000000000000000000000000000000000000000815260040161050890611c0e565b60405180910390fd5b61051b8282610bb3565b5050565b600080600190505b6007548111610588578273ffffffffffffffffffffffffffffffffffffffff166105508261060c565b73ffffffffffffffffffffffffffffffffffffffff160361057557600191505061058e565b808061058090611c5d565b915050610527565b50600090505b919050565b60006105d4576040517f08c379a00000000000000000000000000000000000000000000000000000000081526004016105cb90611c0e565b60405180910390fd5b505050565b80600890816105e89190611e51565b5050565b61060783838360405180602001604052806000815250610899565b505050565b60008061061883610cca565b9050600073ffffffffffffffffffffffffffffffffffffffff168173ffffffffffffffffffffffffffffffffffffffff1603610689576040517f08c379a000000000000000000000000000000000000000000000000000000000815260040161068090611f6f565b60405180910390fd5b80915050919050565b60006001600760008282546106a79190611f8f565b92505081905550600060075490506106bf8382610d07565b7fca1c29581cd05357778c14dc99e12f9adc0edf0bbd34422cd3046b2be2dcfab2836040516106ee91906116e3565b60405180910390a1600754915050919050565b60008073ffffffffffffffffffffffffffffffffffffffff168273ffffffffffffffffffffffffffffffffffffffff1603610771576040517f08c379a000000000000000000000000000000000000000000000000000000000815260040161076890612035565b60405180910390fd5b600360008373ffffffffffffffffffffffffffffffffffffffff1673ffffffffffffffffffffffffffffffffffffffff168152602001908152602001600020549050919050565b6060600180546107c790611b91565b80601f01602080910402602001604051908101604052809291908181526020018280546107f390611b91565b80156108405780601f1061081557610100808354040283529160200191610840565b820191906000526020600020905b81548152906001019060200180831161082357829003601f168201915b5050505050905090565b801561088b576040517f08c379a000000000000000000000000000000000000000000000000000000000815260040161088290611c0e565b60405180910390fd5b6108958282610f24565b5050565b60006108da576040517f08c379a00000000000000000000000000000000000000000000000000000000081526004016108d190611c0e565b60405180910390fd5b50505050565b60606108eb82610b68565b600060066000848152602001908152602001600020805461090b90611b91565b80601f016020809104026020016040519081016040528092919081815260200182805461093790611b91565b80156109845780601f1061095957610100808354040283529160200191610984565b820191906000526020600020905b81548152906001019060200180831161096757829003601f168201915b505050505090506000610995610f3a565b905060008151036109aa5781925050506109ed565b6000825111156109df5780826040516020016109c7929190612091565b604051602081830303815290604052925050506109ed565b6109e884610f51565b925050505b919050565b6000600560008473ffffffffffffffffffffffffffffffffffffffff1673ffffffffffffffffffffffffffffffffffffffff16815260200190815260200160002060008373ffffffffffffffffffffffffffffffffffffffff1673ffffffffffffffffffffffffffffffffffffffff16815260200190815260200160002060009054906101000a900460ff16905092915050565b60007f80ac58cd000000000000000000000000000000000000000000000000000000007bffffffffffffffffffffffffffffffffffffffffffffffffffffffff1916827bffffffffffffffffffffffffffffffffffffffffffffffffffffffff19161480610b5157507f5b5e139f000000000000000000000000000000000000000000000000000000007bffffffffffffffffffffffffffffffffffffffffffffffffffffffff1916827bffffffffffffffffffffffffffffffffffffffffffffffffffffffff1916145b80610b615750610b6082610fb9565b5b9050919050565b610b7181611023565b610bb0576040517f08c379a0000000000000000000000000000000000000000000000000000000008152600401610ba790611f6f565b60405180910390fd5b50565b6000610bbe8261060c565b90508073ffffffffffffffffffffffffffffffffffffffff168373ffffffffffffffffffffffffffffffffffffffff1603610c2e576040517f08c379a0000000000000000000000000000000000000000000000000000000008152600401610c2590612127565b60405180910390fd5b8073ffffffffffffffffffffffffffffffffffffffff16610c4d611064565b73ffffffffffffffffffffffffffffffffffffffff161480610c7c5750610c7b81610c76611064565b6109f2565b5b610cbb576040517f08c379a0000000000000000000000000000000000000000000000000000000008152600401610cb2906121b9565b60405180910390fd5b610cc5838361106c565b505050565b60006002600083815260200190815260200160002060009054906101000a900473ffffffffffffffffffffffffffffffffffffffff169050919050565b600073ffffffffffffffffffffffffffffffffffffffff168273ffffffffffffffffffffffffffffffffffffffff1603610d76576040517f08c379a0000000000000000000000000000000000000000000000000000000008152600401610d6d90612225565b60405180910390fd5b610d7f81611023565b15610dbf576040517f08c379a0000000000000000000000000000000000000000000000000000000008152600401610db690612291565b60405180910390fd5b610dcd600083836001611125565b610dd681611023565b15610e16576040517f08c379a0000000000000000000000000000000000000000000000000000000008152600401610e0d90612291565b60405180910390fd5b6001600360008473ffffffffffffffffffffffffffffffffffffffff1673ffffffffffffffffffffffffffffffffffffffff16815260200190815260200160002060008282540192505081905550816002600083815260200190815260200160002060006101000a81548173ffffffffffffffffffffffffffffffffffffffff021916908373ffffffffffffffffffffffffffffffffffffffff160217905550808273ffffffffffffffffffffffffffffffffffffffff16600073ffffffffffffffffffffffffffffffffffffffff167fddf252ad1be2c89b69c2b068fc378daa952ba7f163c4a11628f55a4df523b3ef60405160405180910390a4610f2060008383600161112b565b5050565b610f36610f2f611064565b8383611131565b5050565b606060405180602001604052806000815250905090565b6060610f5c82610b68565b6000610f66610f3a565b90506000815111610f865760405180602001604052806000815250610fb1565b80610f908461129d565b604051602001610fa1929190612091565b6040516020818303038152906040525b915050919050565b60007f01ffc9a7000000000000000000000000000000000000000000000000000000007bffffffffffffffffffffffffffffffffffffffffffffffffffffffff1916827bffffffffffffffffffffffffffffffffffffffffffffffffffffffff1916149050919050565b60008073ffffffffffffffffffffffffffffffffffffffff1661104583610cca565b73ffffffffffffffffffffffffffffffffffffffff1614159050919050565b600033905090565b816004600083815260200190815260200160002060006101000a81548173ffffffffffffffffffffffffffffffffffffffff021916908373ffffffffffffffffffffffffffffffffffffffff160217905550808273ffffffffffffffffffffffffffffffffffffffff166110df8361060c565b73ffffffffffffffffffffffffffffffffffffffff167f8c5be1e5ebec7d5bd14f71427d1e84f3dd0314c0f7b2291e5b200ac8c7c3b92560405160405180910390a45050565b50505050565b50505050565b8173ffffffffffffffffffffffffffffffffffffffff168373ffffffffffffffffffffffffffffffffffffffff160361119f576040517f08c379a0000000000000000000000000000000000000000000000000000000008152600401611196906122fd565b60405180910390fd5b80600560008573ffffffffffffffffffffffffffffffffffffffff1673ffffffffffffffffffffffffffffffffffffffff16815260200190815260200160002060008473ffffffffffffffffffffffffffffffffffffffff1673ffffffffffffffffffffffffffffffffffffffff16815260200190815260200160002060006101000a81548160ff0219169083151502179055508173ffffffffffffffffffffffffffffffffffffffff168373ffffffffffffffffffffffffffffffffffffffff167f17307eab39ab6107e8899845ad3d59bd9653f200f220920489ca2b5937696c31836040516112909190611572565b60405180910390a3505050565b6060600060016112ac8461136b565b01905060008167ffffffffffffffff8111156112cb576112ca6117f4565b5b6040519080825280601f01601f1916602001820160405280156112fd5781602001600182028036833780820191505090505b509050600082602001820190505b600115611360578080600190039150507f3031323334353637383961626364656600000000000000000000000000000000600a86061a8153600a85816113545761135361231d565b5b0494506000850361130b575b819350505050919050565b600080600090507a184f03e93ff9f4daa797ed6e38ed64bf6a1f01000000000000000083106113c9577a184f03e93ff9f4daa797ed6e38ed64bf6a1f01000000000000000083816113bf576113be61231d565b5b0492506040810190505b6d04ee2d6d415b85acef81000000008310611406576d04ee2d6d415b85acef810000000083816113fc576113fb61231d565b5b0492506020810190505b662386f26fc10000831061143557662386f26fc10000838161142b5761142a61231d565b5b0492506010810190505b6305f5e100831061145e576305f5e10083816114545761145361231d565b5b0492506008810190505b61271083106114835761271083816114795761147861231d565b5b0492506004810190505b606483106114a6576064838161149c5761149b61231d565b5b0492506002810190505b600a83106114b5576001810190505b80915050919050565b6000604051905090565b600080fd5b600080fd5b60007fffffffff0000000000000000000000000000000000000000000000000000000082169050919050565b611507816114d2565b811461151257600080fd5b50565b600081359050611524816114fe565b92915050565b6000602082840312156115405761153f6114c8565b5b600061154e84828501611515565b91505092915050565b60008115159050919050565b61156c81611557565b82525050565b60006020820190506115876000830184611563565b92915050565b600081519050919050565b600082825260208201905092915050565b60005b838110156115c75780820151818401526020810190506115ac565b60008484015250505050565b6000601f19601f8301169050919050565b60006115ef8261158d565b6115f98185611598565b93506116098185602086016115a9565b611612816115d3565b840191505092915050565b6000602082019050818103600083015261163781846115e4565b905092915050565b6000819050919050565b6116528161163f565b811461165d57600080fd5b50565b60008135905061166f81611649565b92915050565b60006020828403121561168b5761168a6114c8565b5b600061169984828501611660565b91505092915050565b600073ffffffffffffffffffffffffffffffffffffffff82169050919050565b60006116cd826116a2565b9050919050565b6116dd816116c2565b82525050565b60006020820190506116f860008301846116d4565b92915050565b611707816116c2565b811461171257600080fd5b50565b600081359050611724816116fe565b92915050565b60008060408385031215611741576117406114c8565b5b600061174f85828601611715565b925050602061176085828601611660565b9150509250929050565b6000602082840312156117805761177f6114c8565b5b600061178e84828501611715565b91505092915050565b6000806000606084860312156117b0576117af6114c8565b5b60006117be86828701611715565b93505060206117cf86828701611715565b92505060406117e086828701611660565b9150509250925092565b600080fd5b600080fd5b7f4e487b7100000000000000000000000000000000000000000000000000000000600052604160045260246000fd5b61182c826115d3565b810181811067ffffffffffffffff8211171561184b5761184a6117f4565b5b80604052505050565b600061185e6114be565b905061186a8282611823565b919050565b600067ffffffffffffffff82111561188a576118896117f4565b5b611893826115d3565b9050602081019050919050565b82818337600083830152505050565b60006118c26118bd8461186f565b611854565b9050828152602081018484840111156118de576118dd6117ef565b5b6118e98482856118a0565b509392505050565b600082601f830112611906576119056117ea565b5b81356119168482602086016118af565b91505092915050565b600060208284031215611935576119346114c8565b5b600082013567ffffffffffffffff811115611953576119526114cd565b5b61195f848285016118f1565b91505092915050565b6119718161163f565b82525050565b600060208201905061198c6000830184611968565b92915050565b61199b81611557565b81146119a657600080fd5b50565b6000813590506119b881611992565b92915050565b600080604083850312156119d5576119d46114c8565b5b60006119e385828601611715565b92505060206119f4858286016119a9565b9150509250929050565b600067ffffffffffffffff821115611a1957611a186117f4565b5b611a22826115d3565b9050602081019050919050565b6000611a42611a3d846119fe565b611854565b905082815260208101848484011115611a5e57611a5d6117ef565b5b611a698482856118a0565b509392505050565b600082601f830112611a8657611a856117ea565b5b8135611a96848260208601611a2f565b91505092915050565b60008060008060808587031215611ab957611ab86114c8565b5b6000611ac787828801611715565b9450506020611ad887828801611715565b9350506040611ae987828801611660565b925050606085013567ffffffffffffffff811115611b0a57611b096114cd565b5b611b1687828801611a71565b91505092959194509250565b60008060408385031215611b3957611b386114c8565b5b6000611b4785828601611715565b9250506020611b5885828601611715565b9150509250929050565b7f4e487b7100000000000000000000000000000000000000000000000000000000600052602260045260246000fd5b60006002820490506001821680611ba957607f821691505b602082108103611bbc57611bbb611b62565b5b50919050565b7f746f6b656e20697320534f554c20424f554e4400000000000000000000000000600082015250565b6000611bf8601383611598565b9150611c0382611bc2565b602082019050919050565b60006020820190508181036000830152611c2781611beb565b9050919050565b7f4e487b7100000000000000000000000000000000000000000000000000000000600052601160045260246000fd5b6000611c688261163f565b91507fffffffffffffffffffffffffffffffffffffffffffffffffffffffffffffffff8203611c9a57611c99611c2e565b5b600182019050919050565b60008190508160005260206000209050919050565b60006020601f8301049050919050565b600082821b905092915050565b600060088302611d077fffffffffffffffffffffffffffffffffffffffffffffffffffffffffffffffff82611cca565b611d118683611cca565b95508019841693508086168417925050509392505050565b6000819050919050565b6000611d4e611d49611d448461163f565b611d29565b61163f565b9050919050565b6000819050919050565b611d6883611d33565b611d7c611d7482611d55565b848454611cd7565b825550505050565b600090565b611d91611d84565b611d9c818484611d5f565b505050565b5b81811015611dc057611db5600082611d89565b600181019050611da2565b5050565b601f821115611e0557611dd681611ca5565b611ddf84611cba565b81016020851015611dee578190505b611e02611dfa85611cba565b830182611da1565b50505b505050565b600082821c905092915050565b6000611e2860001984600802611e0a565b1980831691505092915050565b6000611e418383611e17565b9150826002028217905092915050565b611e5a8261158d565b67ffffffffffffffff811115611e7357611e726117f4565b5b611e7d8254611b91565b611e88828285611dc4565b600060209050601f831160018114611ebb5760008415611ea9578287015190505b611eb38582611e35565b865550611f1b565b601f198416611ec986611ca5565b60005b82811015611ef157848901518255600182019150602085019450602081019050611ecc565b86831015611f0e5784890151611f0a601f891682611e17565b8355505b6001600288020188555050505b505050505050565b7f4552433732313a20696e76616c696420746f6b656e2049440000000000000000600082015250565b6000611f59601883611598565b9150611f6482611f23565b602082019050919050565b60006020820190508181036000830152611f8881611f4c565b9050919050565b6000611f9a8261163f565b9150611fa58361163f565b9250828201905080821115611fbd57611fbc611c2e565b5b92915050565b7f4552433732313a2061646472657373207a65726f206973206e6f74206120766160008201527f6c6964206f776e65720000000000000000000000000000000000000000000000602082015250565b600061201f602983611598565b915061202a82611fc3565b604082019050919050565b6000602082019050818103600083015261204e81612012565b9050919050565b600081905092915050565b600061206b8261158d565b6120758185612055565b93506120858185602086016115a9565b80840191505092915050565b600061209d8285612060565b91506120a98284612060565b91508190509392505050565b7f4552433732313a20617070726f76616c20746f2063757272656e74206f776e6560008201527f7200000000000000000000000000000000000000000000000000000000000000602082015250565b6000612111602183611598565b915061211c826120b5565b604082019050919050565b6000602082019050818103600083015261214081612104565b9050919050565b7f4552433732313a20617070726f76652063616c6c6572206973206e6f7420746f60008201527f6b656e206f776e6572206f7220617070726f76656420666f7220616c6c000000602082015250565b60006121a3603d83611598565b91506121ae82612147565b604082019050919050565b600060208201905081810360008301526121d281612196565b9050919050565b7f4552433732313a206d696e7420746f20746865207a65726f2061646472657373600082015250565b600061220f602083611598565b915061221a826121d9565b602082019050919050565b6000602082019050818103600083015261223e81612202565b9050919050565b7f4552433732313a20746f6b656e20616c7265616479206d696e74656400000000600082015250565b600061227b601c83611598565b915061228682612245565b602082019050919050565b600060208201905081810360008301526122aa8161226e565b9050919050565b7f4552433732313a20617070726f766520746f2063616c6c657200000000000000600082015250565b60006122e7601983611598565b91506122f2826122b1565b602082019050919050565b60006020820190508181036000830152612316816122da565b9050919050565b7f4e487b7100000000000000000000000000000000000000000000000000000000600052601260045260246000fdfea264697066735822122077b91698c9a7f55a83bec827090bafd16068d9f4283cdcf7338638b90e002d7f64736f6c63430008130033",
  "immutableReferences": {},
  "source": "// SPDX-License-Identifier: UNLICENSED\r\npragma solidity ^0.8.19;\r\n\r\nimport \"@openzeppelin/contracts/token/ERC721/extensions/ERC721URIStorage.sol\";\r\nimport \"@openzeppelin/contracts/token/ERC721/IERC721.sol\";\r\nimport \"@openzeppelin/contracts/access/Ownable.sol\";\r\n\r\n\r\ncontract TierTwo is ERC721URIStorage {\r\n    uint256 _currentTokenId;\r\n    string private _baseTokenURI;\r\n\r\n    event mintedTTwo(address _address);\r\n\r\n    constructor(string memory baseTokenURI) ERC721(\"TierTwo\", \"T2\"){\r\n        _baseTokenURI = baseTokenURI;\r\n        _currentTokenId = 1;\r\n    }\r\n    \r\n    function setBaseTokenURI(string memory baseTokenURI) public {\r\n        _baseTokenURI = baseTokenURI;\r\n    }\r\n\r\n    function mint(address _recipient) public returns (uint256 _sbtId){\r\n        _currentTokenId += 1;\r\n        uint256 newItemId = _currentTokenId;\r\n        _mint(_recipient, newItemId);\r\n        emit mintedTTwo(_recipient);\r\n        return _currentTokenId;\r\n    }\r\n\r\n    function checkOwnership(address wallet) public view returns (bool) {\r\n        for (uint256 tokenId = 1; tokenId <= _currentTokenId; tokenId++) {\r\n            if (ownerOf(tokenId) == wallet) {\r\n                return true;\r\n            }\r\n        }\r\n        return false;\r\n    }\r\n\r\n    function approve(address to, uint256 tokenId) public virtual override(ERC721, IERC721) {\r\n        require(to == address(0), \"token is SOUL BOUND\");\r\n        super.approve(to, tokenId);\r\n    }\r\n\r\n    function setApprovalForAll(address operator, bool approved) public virtual override(ERC721, IERC721) {\r\n        require(!approved, \"token is SOUL BOUND\");\r\n        super.setApprovalForAll(operator, approved);\r\n    }\r\n\r\n    function transferFrom(address from, address to, uint256 tokenId) public virtual override(ERC721, IERC721) {\r\n        require(false, \"token is SOUL BOUND\");\r\n    }\r\n\r\n    function safeTransferFrom(address from, address to, uint256 tokenId, bytes memory _data) public virtual override(ERC721, IERC721) {\r\n        require(false, \"token is SOUL BOUND\");\r\n    }\r\n}",
  "sourcePath": "C:\\Users\\Alex\\Desktop\\GreenWalletV2\\contracts\\TierTwo.sol",
  "compiler": {
    "name": "solc",
    "version": "0.8.19+commit.7dd6d404.Emscripten.clang"
  },
  "schemaVersion": "3.4.16",
  "updatedAt": "2024-09-28T16:41:54.851Z",
  "networkType": "ethereum",
  "devdoc": {
    "events": {
      "Approval(address,address,uint256)": {
        "details": "Emitted when `owner` enables `approved` to manage the `tokenId` token."
      },
      "ApprovalForAll(address,address,bool)": {
        "details": "Emitted when `owner` enables or disables (`approved`) `operator` to manage all of its assets."
      },
      "BatchMetadataUpdate(uint256,uint256)": {
        "details": "This event emits when the metadata of a range of tokens is changed. So that the third-party platforms such as NFT market could timely update the images and related attributes of the NFTs."
      },
      "MetadataUpdate(uint256)": {
        "details": "This event emits when the metadata of a token is changed. So that the third-party platforms such as NFT market could timely update the images and related attributes of the NFT."
      },
      "Transfer(address,address,uint256)": {
        "details": "Emitted when `tokenId` token is transferred from `from` to `to`."
      }
    },
    "kind": "dev",
    "methods": {
      "balanceOf(address)": {
        "details": "See {IERC721-balanceOf}."
      },
      "getApproved(uint256)": {
        "details": "See {IERC721-getApproved}."
      },
      "isApprovedForAll(address,address)": {
        "details": "See {IERC721-isApprovedForAll}."
      },
      "name()": {
        "details": "See {IERC721Metadata-name}."
      },
      "ownerOf(uint256)": {
        "details": "See {IERC721-ownerOf}."
      },
      "safeTransferFrom(address,address,uint256)": {
        "details": "See {IERC721-safeTransferFrom}."
      },
      "supportsInterface(bytes4)": {
        "details": "See {IERC165-supportsInterface}"
      },
      "symbol()": {
        "details": "See {IERC721Metadata-symbol}."
      },
      "tokenURI(uint256)": {
        "details": "See {IERC721Metadata-tokenURI}."
      }
    },
    "version": 1
  },
  "userdoc": {
    "kind": "user",
    "methods": {},
    "version": 1
  }
}